:100000000C943A000C9457000C9457000C94570031
:100010000C9457000C9457000C9457000C94570004
:100020000C9457000C9457000C9457000C945700F4
:100030000C9457000C9457000C9457000C945700E4
:100040000C9457000C9457000C9457000C945700D4
:100050000C9457000C9457000C9457000C945700C4
:100060000C9457000C9457000C9457000C945700B4
:100070000C94570011241FBECFEFD4E0DEBFCDBFDC
:1000800013E0A0E0B1E0ECE3FCE102C005900D92CA
:10009000A433B107D9F724E0A4E3B3E001C01D9273
:1000A000AC38B207E1F70E94320D0C941C0E0C9490
:1000B00000000C947B0980915303909154030C949D
:1000C000D50B80915503909156030E941B0D8823F8
:1000D00019F05C9A5E9A08955C985E980895CF93A3
:1000E000DF9300D0CDB7DEB789839A830E9456088C
:1000F00020910C0189819A81211104C0209157031C
:10010000222351F00E94570963E072E0809153036B
:10011000909154030E94AB0B0F900F90DF91CF9101
:100120000C947B09BF92CF92DF92EF92FF920F93D4
:100130001F93CF93DF9300D000D000D0CDB7DEB7B0
:100140008C0165EF72E080915303909154030E94FB
:10015000AB0B0E94560880915703811177C08091A4
:100160000C01811173C061E0D8018D919C910E94B6
:10017000A507D8011296ED91FC91139761E080815B
:1001800091810E94A50786E0B82E0115110529F17D
:100190007801B6E0EB0EF11C6801E4E2CE0ED11C52
:1001A000F701DE0111968B2D01900D928A95E1F7F2
:1001B000F7018081882329F061E08A819B810E9478
:1001C000A507F6E0EF0EF11CEC14FD0449F7D80189
:1001D00012960D911C911397D8CF209134032223AE
:1001E000A9F130E021503109C90165E070E00E94B9
:1001F000C80D8E569C4F892B49F5C90165E070E00A
:100200000E94C80DFC01E057FC4F95E0DE011196FD
:1002100001900D929A95E1F761E089819A810E949F
:10022000A5070E947B0984E690E026960FB6F89415
:10023000DEBF0FBECDBFDF91CF911F910F91FF9019
:10024000EF90DF90CF90BF900C94970626960FB654
:10025000F894DEBF0FBECDBFDF91CF911F910F91FC
:10026000FF90EF90DF90CF90BF900895FC018281C6
:100270009381892B51F081E08093570387EF92E0BF
:100280000E946F0063E871E009C081E0809357032A
:1002900082E093E00E946F006FE371E0809153036E
:1002A000909154030C94AB0B81E0809357038CE046
:1002B00093E00E946F0067EC71E08091530390918E
:1002C00054030C94AB0B0E94C10A882309F468C044
:1002D0000E94C30A8630D8F424E030E0A901481B0C
:1002E000510987FD5395CA01019666E070E00E94AE
:1002F000C80DFC01E459FC4F4081415040835181BD
:1003000062817381848195810E942C051CC0823595
:1003100059F12CF48434D9F08C3491F10895853559
:1003200031F08635C9F18435D9F50C94540161E07A
:1003300086E294E00E94E005811105C061E086E25A
:1003400094E00E94AA058CE693E00C94920062E08F
:1003500086E294E00E94E0058111F5CF61E086E23B
:1003600094E00E94B705EFCF64E086E294E00E943B
:10037000E0058111E8CF86E294E00E94D905E3CF41
:1003800063E086E294E00E94E0058111DCCF86E222
:1003900094E00E94D205D7CF86E294E00C94360117
:1003A0000895CF93C82F362FDA01209134032E31D0
:1003B00090F4822F90E065E070E00E94C80DFC018F
:1003C000E057FC4F2F5F20933403C0833183B48305
:1003D000A383128202C0E0E0F0E0CF01CF91089544
:1003E0008F929F92BF92CF92DF92EF92FF920F93E4
:1003F0001F93CF93DF931F92CDB7DEB7DC0186E268
:1004000094E090936F0380936E038CE693E0909357
:100410002B0480932A0482E08C931296ED91FC9138
:100420001397309711F480E001C086E011968C9309
:1004300082E0808382819381892B11F480E001C066
:1004400086E081830481158125E0D12C82E0B82EDD
:1004500001151105F1F14801F9E08F0E911CE12C15
:10046000F12CC12C84E08D1510F42150D12CF80111
:1004700082819381892B09F421E0F4013297D082A3
:10048000319620833297B082F40112830183C082B7
:10049000FFEFEF1AFF0AC70166E070E00E94C80D87
:1004A000F801E80FF91F40815181628173818481D5
:1004B000958129830E942C05D394C39486E0880EED
:1004C000911C2981E5E0CE12CDCFF8010281138184
:1004D000BFCF8CE693E00E9492000F90DF91CF9106
:1004E0001F910F91FF90EF90DF90CF90BF909F9062
:1004F0008F900C947B09BF92CF92DF92EF92FF9284
:100500000F931F93CF93DF9300D000D000D0CDB7CF
:10051000DEB70E94950480910C018823E1F084E00D
:100520000E9463048823B9F010920C0110925703C3
:100530008CE693E026960FB6F894DEBF0FBECDBFD3
:10054000DF91CF911F910F91FF90EF90DF90CF90AF
:10055000BF900C94920080915703882319F184E096
:100560000E9463048823F1F08CE693E00E94F0017E
:10057000109234031092570381E080930C0181E2C2
:1005800093E026960FB6F894DEBF0FBECDBFDF9185
:10059000CF911F910F91FF90EF90DF90CF90BF9080
:1005A0000C946F008091570381113AC180910C0126
:1005B000811136C10E946304882391F061E08CE6CA
:1005C00093E00E94E005811105C061E08CE693E0B4
:1005D0000E94AA058CE693E00E94920084E416C073
:1005E00082E00E9463048823A1F062E08CE693E03D
:1005F0000E94E005811105C06AE08CE693E00E944C
:10060000B7058CE693E00E94920085E50E94CB0A34
:10061000D3C083E00E946304882389F063E08CE602
:1006200093E00E94E005811104C08CE693E00E94F3
:10063000D2058CE693E00E94920082E5E7CF81E04C
:100640000E946304882389F064E08CE693E00E94B2
:10065000E005811104C08CE693E00E94D9058CE688
:1006600093E00E9492008CE4D1CF84E00E94630466
:10067000882309F4A1C040916E0350916F03411586
:10068000510521F4409170035091710360916D0305
:1006900080916C030E94D1018C01DC011396ED90D6
:1006A000FC901497BB24B394D80112968C918111BD
:1006B00083C020916E0330916F03F80181818150D6
:1006C000232B11F0818301C08183F8016181808136
:1006D0000E94540529833A834B835C836D837E8318
:1006E000C52ED12C8CE693E00E949200D70118967B
:1006F0004C91C60166E070E00E94C80DF701E80F5A
:10070000F91F2681D80111963C91222399F1828507
:1007100093858E159F0571F550E0832F032E000CF5
:10072000990B8417950731F521502683C601019650
:1007300066E070E00E94C80DF701E80FF91F4081E4
:10074000518162817381848195810E942C05F80119
:10075000B282C60166E070E00E94C80D8E0D9F1D3A
:10076000DC0119968C910E94CB0A8CE693E00E94E2
:1007700092009ACFF8019081D7018C9198130EC006
:1007800011968C9138130AC086E50E94CB0A8CE63C
:1007900093E00E94360100E010E086CF373008F485
:1007A00083CFF801B282609158036B2560935803A0
:1007B00080E00E94410A78CF8CE693E00E945406C4
:1007C0008823A1F084E50E94CB0A26960FB6F89400
:1007D000DEBF0FBECDBFDF91CF911F910F91FF9074
:1007E000EF90DF90CF90BF900C94540180916D03F7
:1007F000811116C086E50E94CB0A8CE693E026960E
:100800000FB6F894DEBF0FBECDBFDF91CF911F9121
:100810000F91FF90EF90DF90CF90BF900C94360136
:1008200026960FB6F894DEBF0FBECDBFDF91CF91F5
:100830001F910F91FF90EF90DF90CF90BF900895A0
:10084000E1E6F0E080E880831082A89584B7877F96
:1008500084BFE0E6F0E080818861808310820895A3
:100860006230710511F168F46130710551F5FC01D8
:10087000FF2724A1892F8095922F982394A395A1D7
:1008800012C06330710541F064307105D1F4FC0190
:10089000FF2784A1892B0FC0FC01FF2784A1892B8E
:1008A00084A385A19095892309C0FC01FF2724A179
:1008B000892F8095822384A385A1892B85A381E03C
:1008C000089580E00895E82FF0E0EE0FFF1FE75A4B
:1008D000FC4F8081882321F0918181E0892702C02B
:1008E00080E090E081700895E82FF0E0EE0FFF1FA8
:1008F000E75AFC4F8081811102C0818102C080E0F3
:1009000090E081700895E82FF0E0EE0FFF1FE75AA6
:10091000FC4F80810895E82FF0E0EE0FFF1FE75AAB
:10092000FC4F908181E0892708956F927F928F928A
:100930009F92AF92BF92CF92DF92EF92FF920F936E
:100940001F93CF93DF9300D0CDB7DEB729E5622E9A
:1009500023E0722E37ECC32E32E0D32E812C46E0FA
:10096000942EF30180818183F601019111916F0131
:100970005801BB24F50184A1E12EFF2425A130E01C
:100980002E213F2141E0232B09F440E090E08E210D
:100990009F21892B29F0411108C023E030E00AC0D3
:1009A000411106C021E030E005C024E030E002C083
:1009B00022E030E064E070E0C80129833A830E94BD
:1009C000300462E070E0C8010E943004892D8A95ED
:1009D000F1F7F50183A190E0E822F92281E0298175
:1009E0003A81EF2809F080E0F3018083B901C80162
:1009F0000E9430048394F2E06F0E711C85E088122F
:100A0000B0CF0F900F90DF91CF911F910F91FF907A
:100A1000EF90DF90CF90BF90AF909F908F907F909E
:100A20006F9008950895462F90E063E070E00E9473
:100A3000C80D9C01842F90E065E070E00E94C80D15
:100A4000820F931F23E0880F991F2A95E1F76BE02F
:100A500070E00E94F90D0895CF93DF9300D000D08D
:100A600000D0CDB7DEB749835A836B837C838D83F7
:100A70009E83852F0E94130590E066E070E00E943F
:100A8000C80DDC01A65BBB4F96E0FE0131960190DC
:100A90000D929A95E1F726960FB6F894DEBF0FBE39
:100AA000CDBFDF91CF9108950F931F93CF93DF9325
:100AB000CDB7DEB72C970FB6F894DEBF0FBECDBF13
:100AC000082F162F0E94130590E066E070E00E9448
:100AD000C80D865B9B4F26E0FC01DE011796019056
:100AE0000D922A95E1F7FC0131812281432F032EDB
:100AF000000C550B802F90E048175907A9F4612F7F
:100B000070E0822F022E000C990B8617970761F474
:100B10003887298786E0FE013796DE01119601901D
:100B20000D928A95E1F703C019821A821B822981EE
:100B30003A814B815C816D817E8180E090E02C96D2
:100B40000FB6F894DEBF0FBECDBFDF91CF911F91DE
:100B50000F910895FC019181292F092E000C330B70
:100B6000261B310937FD02C0961B91830895FC01B5
:100B700091816A3058F4262F30E0290F311D97FDFE
:100B80003A95273031056CF4960F0AC022813381E3
:100B9000232B19F096302CF402C0953014F49F5F8B
:100BA00091830895FC019081191614F4915090835B
:100BB0000895FC019081943014F49F5F9083089510
:100BC000DF92EF92FF920F931F93CF93DF9300D0AA
:100BD00000D000D0CDB7DEB7FC010081918162303A
:100BE00059F020F4613059F4915009C0633031F06C
:100BF000643029F40F5F03C09F5F01C00150892F4B
:100C00008B7FD82E81E0D8123FC0162F7F01692F2D
:100C1000802F0E94540529833A834B835C836D8324
:100C20007E83832F330F990B019666E070E00E945C
:100C3000C80DED81FE81E80FF91F84819581208127
:100C4000222311F18E159F0501F5113029F462E080
:100C5000C7010E94AA0519C0123029F462E0C70139
:100C60000E94B70512C06DEF610F623070F4802FE3
:100C700090E0019666E070E00E94C80DF701E80F71
:100C8000F91F8081811101C0D12C8D2D26960FB6C0
:100C9000F894DEBF0FBECDBFDF91CF911F910F91B2
:100CA000FF90EF90DF900895FC0140812181A281A7
:100CB000B38150E0109759F08C91082E000C990BDD
:100CC00048175907B9F430E011964C910CC00480D4
:100CD000F581E02D8081082E000C990B48175907EB
:100CE00049F430E04181042E000C550B81E02417BB
:100CF000350709F080E008951092800084E0809329
:100D000081001092850010928400089580918400E3
:100D1000909185000895AC018091840090918500A8
:100D20009C01241B350B283E3340B0F708952091D9
:100D3000840030918500820F931F0C948B069C01D8
:100D4000FC01FF2784A1832B84A395A1892F832BEA
:100D500085A381E00895CF93DF93CBEDD2E0899115
:100D600099910E949F0682E0C93ED807C1F783E0AF
:100D700090E40E949F0680E090E80E949F0683E036
:100D800090E10E949F0683E090E80E949F0683E026
:100D900090E2DF91CF910C949F06E0916303F0E025
:100DA000EE0FFF1FEF52FD4F20813181F901FF2728
:100DB00095A1932B95A3EBEDF2E097E02081318193
:100DC000D901BB2795962C91959780FF03C030954C
:100DD000232301C0232B95962C9386959150329610
:100DE0009111ECCFE62FF0E0EE0FFF1FEF52FD4F19
:100DF00080819181FC01FF2785A19095892385A39E
:100E0000609363030895853098F4673088F421E097
:100E100030E001C0220F6A95EAF7E82FF0E0EB59C5
:100E2000FC4F922F9095808189234111822B8083E2
:100E30000895853080F4673070F4E82FF0E0EB59C6
:100E4000FC4F81E090E001C0880F6A95EAF790813D
:100E5000982381E009F480E0089560916403E62F0F
:100E6000F0E0EB59FC4F80810E94CD068091640335
:100E70008F5F853018F480936403089510926403A3
:100E80000895E5E6F3E01082118212821382148243
:100E900008950E94AB060C944107009789F0FC016D
:100EA0002381621B67FD09C0062E000C770B24818D
:100EB00030E081E0621773070CF080E081700895E4
:100EC00080E00895CF93DF93FC01A62F822F309707
:100ED00071F16181461758F59281291740F5938188
:100EE000A91BA7FD24C00A2E000CBB0BC481D0E0B7
:100EF000AC17BD07E4F40E94BF0D480F658170E098
:100F0000CD010E94C80D0696242F2695269526957C
:100F1000E80FF91FE20FF11D9081892F90E04770D3
:100F200002C0959587954A95E2F7817001C080E0EF
:100F3000DF91CF91089541E0611101C040E0692F38
:100F40000C940307692F0C94190741E0611101C04B
:100F500040E0692F0C9403074F925F926F927F924B
:100F60008F929F92AF92BF92CF92DF92EF92FF92B9
:100F70000F931F93CF93DF931F92CDB7DEB7862ECB
:100F8000942E5C01E62EF72E262F660F330B281BBE
:100F9000310987FD3395072F072E000C110B091B14
:100FA000110997FD139537FF03C077247A9402C087
:100FB0007724739417FF03C066246A9402C06624E2
:100FC0006394290137FF03C051944194510817FFDE
:100FD00003C011950195110940165106A4F0620154
:100FE000D594C794F92EA81421F1692D8A2D9F2D2F
:100FF0000E94A507C01AD10AD7FE03C0C40CD51C95
:10100000F60CA70CF0CF6801D594C794E82EB7165C
:1010100081F0692D8E2D9B2D79830E94A507C41820
:10102000D5087981D7FE03C0C00ED11EE70CB60CDF
:10103000EECF692DC7010F90DF91CF911F910F91D6
:10104000FF90EF90DF90CF90BF90AF909F908F90E8
:101050007F906F905F904F900C94A507FF920F9335
:101060001F93CF93DF93D82FF92E162FC72F042F5E
:10107000792F0E94AC07402F6D2F7C2F8D2F9F2D35
:101080000E94AC07402F612F7C2F812F9F2D0E9443
:10109000AC07402F612F7C2F8D2F9C2F0E94AC0717
:1010A000DF91CF911F910F91FF9008950E9441070A
:1010B000EDE0F1E0118A14860895DF92EF92FF923D
:1010C0000F931F93CF93DF93D82E7B01162F0F2DF5
:1010D00080910F0190911001C0E00197A1F50F2DB3
:1010E0000C1BE0911501F09116018181C817C0F425
:1010F000D0E08091150190911601FC012281D21758
:1011000068F42D2F4C2F6D2D0E946207682F8D2FB4
:101110008E0D902F0E94A507DF5FEBCFCF5FDFCF53
:10112000C0E0E0911501F09116018281C81740F4EA
:1011300060E08C2F8E0D902F0E94A507CF5FF1CF1E
:10114000015031C0CF5F1C2F1E0DE0911501F091B1
:1011500016018181C817B0F4D0E0809115019091FB
:101160001601FC012281D21768F72D2F4C2F6D2D0F
:101170000E946207682F812F9D2F9F0D0E94A50757
:10118000DF5FEBCFC0E0E0911501F09116018281A5
:10119000C81740F460E0812F9C2F9F0D0E94A50787
:1011A000CF5FF1CF1F5F812F902FDF91CF911F91E4
:1011B0000F91FF90EF90DF9008951F93CF93DF93EF
:1011C000182FEC018C2F811B9991992351F0892FB5
:1011D0000E945D08BC018C2F811B653014F477FFE1
:1011E000F1CFDF91CF911F9108950F931F93CF936C
:1011F000DF93EC019B011092190140931A011092A8
:101200001D0100911501109116010115110509F438
:1012100049C0F8018181609113017091140190E03F
:101220000E94C80DBC0180911701909118010E9485
:10123000E50DCB016AE070E00E94C80D90931C019F
:1012400080931B01309312012093110140E250E082
:10125000BE018EE191E00E940D0E80910D019091F2
:101260000E010197F9F4FE0101900020E9F7CF018A
:101270000197F8019181692F70E06F5F7F4F8C1BA0
:101280000E94BF0D815020910F013091100121303B
:10129000310511F095E001C097E0981718F48EEF32
:1012A00080931D01DF91CF911F910F91089520919F
:1012B0000F01309110012130310511F070E001C0B3
:1012C00076E04FEF60E00E94F508089590E090937B
:1012D000140180931301089590930E0180930D01E2
:1012E00008959093100180930F0108959093160133
:1012F00080931501089580916A0390916B03019684
:1013000090936B0380936A0320911B0130911C0121
:101310008217930708F469C010926B0310926A0356
:10132000E0911901F0E0E35FFE4F818981110AC06D
:1013300080911A01823008F458C0815080931A01BC
:10134000109219018091190190E0FC01E35FFE4FBA
:101350002189222309F449C040910D0150910E01C9
:1013600020911D014115510521F04130510599F0A1
:1013700024C0211122C06091110170911201825E7E
:101380009E4F0E94DD0890E0019790911901890F0E
:101390008093190112C06091110170911201409166
:1013A0000F01509110014130510511F4720F01C02D
:1013B000621B825E9E4F0E94DD0880911D018F5F3F
:1013C00080931D01082E000C990BE0911501F091FE
:1013D0001601218130E0281739073CF410921D01D5
:1013E000809119018F5F809319010C942D07CF9381
:1013F000DF93CDE0D1E09B878A870E94490784E193
:1014000090E09F838E83DF91CF910C945608182F24
:10141000092FF62E0E947C060E948606C12FD02F2F
:101420008E819F810E948B06E881F9818A819B8150
:1014300009958E819F812C813D81280F391F3F8323
:101440002E830E948606E12FF02FAFEFBFEF40E022
:101450004F1531F326813781BC01621B730B9B0151
:101460002F3F7FE7370710F4EF01DACF3195219551
:1014700031092A173B0710F4D901EF014F5F389665
:10148000E7CF811105C0662311F0429A0895429872
:1014900008953A9A429A0895CF93DF931F92CDB759
:1014A000DEB79E012F5F3F4F45E069EE72E00E947C
:1014B000070B91E0980F90933E019981915097BD51
:1014C00018BC95B5977039F095B520913E012770FD
:1014D000987F922B95BD298130E0E82FF0E0E7510D
:1014E000FD4FC901008002C0880F991F0A94E2F7DE
:1014F0000F90DF91CF91089585B3897F85BB85B526
:1015000090913E019770887F892B85BD089585B5A0
:10151000887F85BD089585B382FB882780F908956B
:10152000009719F0019741F0089584B56295660F10
:10153000660F607C8F7305C084B563706295607FB1
:101540008F7C682B64BD0895009741F0019759F492
:1015500084B58E7F84BD84B5826002C084B58C7FE3
:1015600084BD81E0089580E0089514BC15BC16BCCC
:1015700018BC84B58E7F84BD84B5826084BD81E053
:1015800008950C94510B0C94720B0C94570B0C9403
:101590005D0B0C94630B0E94630B0E945D0B882310
:1015A000E1F38CE291E00197F1F70E94510B811178
:1015B0000C94C30A08950C94790BCF93DF9300D059
:1015C0001F92CDB7DEB780ED90E09A83898388E0E3
:1015D0008B83509A589A0E94B50A8FE690E00E9439
:1015E0004C0A81E090E00E94A40A61E070E081E092
:1015F00090E00E94900A0E947C0ACE0101960E940F
:10160000390B0F900F900F90DF91CF910895CF93EA
:10161000DF93DC01562FFB0160E070E0C1E0D0E019
:101620008E2F851B8417B8F49191BE01092E02C03C
:10163000660F771F0A94E2F76F5F7F4F7695679585
:101640006A0F7B1F02C0769567959A95E2F76F3F08
:10165000710509F028F7F9016083DF91CF910895B2
:101660009C01215031093093CD0081508093CC00F2
:101670000895CF93DF93EC01888199810E94300B0C
:101680008A819BEF980F943008F088E098E190935E
:10169000C9008550880F8093CA0081E0DF91CF9107
:1016A00008958091C800881F8827881F0895809119
:1016B000C80085FB882780F908958091C80086FBC3
:1016C000882780F90895CF93C82F0E94570B88234D
:1016D000E1F39091C80090649093C800C093CE004D
:1016E000CF9108958091C80087FFFCCF8091CE00F4
:1016F0000895CF93DF93EC018991882319F00E941C
:10170000630BFACFDF91CF910895FC01858996890B
:1017100060EF70E00E94C80D9C018685648570E0D2
:1017200090E00E94C80DBC01660F771F660F771FFF
:10173000C9010E94E50D63830895CF93DF93EC0107
:10174000E989FA8940E06D858B899C8909951D8618
:10175000DF91CF910895CF93DF93EC0178876F836A
:101760007E836D831A8619861B8684E0888B8C871E
:10177000CE010E94850BCE010E949D0B198218821A
:1017800081E08A83DF91CF910895FC0166870C94F4
:10179000850BFC016787089521E0FC018581968116
:1017A000892B09F420E0822F0895EF92FF920F9386
:1017B0001F93CF93DF93EC010D811E81011511055D
:1017C00009F4EBC088819981009779F0019799839A
:1017D0008883892B09F0E1C0CE01DF91CF911F9161
:1017E0000F91FF90EF900C949D0B8A81882309F450
:1017F000D4C081508A838111D0C0D801EC91E1110D
:1018000004C0CE010E949D0BC6C071E0D8011196A4
:101810008C911197833219F070E0119602C0D801B3
:1018200012964C914B3211F04D3211F4119601C0C9
:1018300040E09D0150E080E089012F5F3F4FD801DB
:101840009C9160ED690F6A3038F46AE00E94BF0D28
:101850008053890F51E0F0CFEE33F1F094F4EA3287
:1018600009F447C02CF4E03209F095C0F12C66C0B1
:10187000EA3331F1EC3309F08EC01A8709871B86F1
:10188000BCCFE83434F4E1340CF040C0E034B1F1C2
:1018900082C0EB35C1F07FC02B852F5F2B87811174
:1018A00001C082E0022E000C330B90E028173907AC
:1018B0000CF0A3CF09851A850115110509F09DCFFC
:1018C0000F8118859ACF2B85022E000C330B90E0E8
:1018D00001972817390709F490CFF8018F018191FA
:1018E000882309F48ACF8B3509F487CF8E33B1F77B
:1018F00084CF882309F481CF8C8704C0882309F41E
:101900007CCF8E87CE010E94850B77CF0E2E000CE8
:10191000FF0BE355FD4F908171119F5F5111888B33
:101920004B3211F4945F03C04D3209F49C50888906
:101930008F5F6CE00E94BF0DF92EF80EC80131E0F8
:10194000301B8C01632F680FFC01208101962F3220
:10195000C1F3E62EEE0CEE0C2E3229F42E2D269538
:10196000E20E8C0104C02C3211F48C01E694E9895A
:10197000FA894F856F2D8B899C890995FD862C816D
:101980002A838B816E2D70E090E00E94C80D821B2F
:101990009109998388831E830D83DF91CF911F91D5
:1019A0000F91FF90EF900895FC01CB01768B658B32
:1019B000528B418B348B238B24E62787158611822B
:1019C0001082128262E370E00E94C80D68EE73E03C
:1019D0000E94E50D648384E0848788EC8687CF01CC
:1019E0000895FC01618342830895FC01662311F090
:1019F000411103C01182128208956832D8F028ED97
:101A0000260F822F6CE00E94D90D382F64EF0E94C0
:101A1000BF0D820FA581B681A80FB11D8C913150E9
:101A200010F08695FCCF8183642F70E090E00E94D7
:101A3000C80D92830895FC0180818F5F808391811E
:101A4000891708F0108281E020819281291708F01F
:101A500080E00895FC01748363835683458311827B
:101A6000128208950F931F93CF93DF93CDB7DEB704
:101A7000A8970FB6F894DEBF0FBECDBF8E010F5FE3
:101A80001F4F88E2F80111928A95E9F781E690E00C
:101A90009A83898386E090E09E838D838BE590E036
:101AA0009A87898728E331E03E872D8789E590E092
:101AB0009A8B898B88E690E09E8B8D8B8BE792E0EA
:101AC0009A8F898F3E8F2D8F83E691E09AA389A309
:101AD0003EA32DA30E94200440E051E068E873E19A
:101AE00085E393E00E942A0D90935603809355035B
:101AF000549A5C98569A5E982091550330915603FB
:101B000045EF5CE064E670E08CE393E00E94D40C67
:101B1000909354038093530368EC0E94C50B0E947A
:101B200012050E94DD0A8CE291E00E94F7098BE425
:101B300092E00E9476098AE00E94660981E090E0C6
:101B40000E946C0981E090E00E9471098CE693E0AC
:101B50000E94F00181E293E00E946F0065E0C801FD
:101B60000E94070A80E090E0A8960FB6F894DEBFC6
:101B70000FBECDBFDF91CF911F910F91089500242B
:101B800080FD060E660F11F08695D1F7802D089521
:101B90000024552704C0080E591F880F991F00976D
:101BA00029F076956795B8F37105B9F7802D952FD3
:101BB0000895991B79E004C0991F961708F0961BA9
:101BC000881F7A95C9F780950895AA1BBB1B51E120
:101BD00007C0AA1FBB1FA617B70710F0A61BB70B9D
:101BE000881F991F5A95A9F780959095BC01CD0142
:101BF000089597FB072E16F4009407D077FD09D0BF
:101C00000E94E50D07FC05D03EF4909581959F4F0D
:101C10000895709561957F4F0895FB01DC01415057
:101C2000504048F001900D920020C9F701C01D926C
:0C1C300041505040E0F70895F894FFCFB9
:101C3C003D393633302D2B2826242220010000007C
:101C4C000000001400000000000000000000000074
:101C5C000000000000000000000000000000000078
:101C6C000000000000000000000000000000012A3D
:101C7C00383C472F2F2F3E333C44232F2F412347F3
:101C8C002F2F2F3E32202F2F2F442B2F2F2F442B33
:101C9C002F2F2F442B2F2F2F44232B2F2F41234615
:101CAC00232F2F2F44232F2F4123472F2F2F202F2C
:101CBC002F2F002A383C472F2F2F3E333C44232F05
:101CCC002F4123472F2F2F3E32202F2F2F442B2FE6
:101CDC002F2F442B2F2F2F442B2F2F2F44232B2FE1
:101CEC002F412346232F2F2F44232F2F4123472FC0
:101CFC002F2F202F2F2F0043464647464544442084
:101D0C0044474741474645432043414142424147AE
:101D1C0046442043434447454620434646454546B2
:101D2C004544434741474643434343444745462E76
:101D3C00203A00403133363C4145433E3245434323
:101D4C004145454345454341454341434343454351
:101D5C00414543203C4543433E3341453C43463E8D
:101D6C00344343464341453C433E353C45433E3278
:101D7C004643203C46433E32203A00010305203BBB
:101D8C000200009220EB737D5FDE3DA552EA7A14CF
:101D9C00004A222229BA2ED0050014C0010020A42A
:101DAC00126A2B9A74A372A338ED498F38CE2AA7E6
:101DBC0012AA2AAE49100410145444380E11152AD4
:101DCC00250000EA5BEB3A4F726B3BCF73CF134F9E
:101DDC007AED5B9774247B5D564972FD5B6F5B6F8C
:101DEC007BEF136F7FEF57CE3897246D7B6D2BED08
:101DFC005FAD5AAD24A7720380034003200080031B
:101E0C0010034000800310038003200040002000DA
:101E1C00100008000400020001000306080A090B68
:101E2C0000020405072000564943544F5259203AEA
:101E3C002900444546454154203A2800434852491C
:101E4C0053544D415320545255434520313931346C
:101E5C0000424154544C45204F46204C45442031BF
:041E6C0039313400D4
:00000001FF
