:100000000C943A000C9457000C9457000C94570031
:100010000C9457000C9457000C9457000C94570004
:100020000C9457000C9457000C9457000C945700F4
:100030000C9457000C9457000C9457000C945700E4
:100040000C9457000C9457000C9457000C945700D4
:100050000C9457000C9457000C9457000C945700C4
:100060000C9457000C9457000C9457000C945700B4
:100070000C94570011241FBECFEFD4E0DEBFCDBFDC
:1000800011E0A0E0B1E0E6E2F2E102C005900D92DD
:10009000A435B107D9F723E0A4E5B1E001C01D9272
:1000A000A33BB207E1F70E947F080C9411090C945E
:1000B0000000BF92CF92DF92EF92FF920F931F93B7
:1000C000CF93DF9300D000D01F92CDB7DEB70E9450
:1000D000AE0760E080916A0190916B010E94D805A3
:1000E00061E080916801909169010E94D80560E00B
:1000F00080915E0290915F020E94D80561E080913C
:100100005C0290915D020E94D80508E611E085E04E
:10011000B82E0115110519F17801F8E0EF0EF11C68
:1001200068018AE3C80ED11CF701DE0111968B2D00
:1001300001900D928A95E1F7F7018081882329F0DB
:1001400061E08A819B810E94D805F5E0EF0EF11CE9
:10015000EC14FD0449F7F80104811581DACF0F9002
:100160000F900F900F900F90DF91CF911F910F91F3
:10017000FF90EF90DF90CF90BF900895089508957D
:10018000CF93C82F362FDA01209154012F3188F4F4
:10019000822F90E066E070E00E94C908FC01EE55F5
:1001A000FE4F2F5F20935401C0833183B583A48316
:1001B00002C0E0E0F0E0CF01CF910895EF92FF920E
:1001C0000F931F93CF93DF9300D000D01F92CDB732
:1001D000DEB70E94750280E00E944302882369F026
:1001E00061E088E691E00E94E00381118DC06AE041
:1001F00088E691E00E948C0387C082E00E9443025F
:10020000882369F062E088E691E00E94E0038111B2
:100210007BC06AE088E691E00E94A70375C083E096
:100220000E944302882361F063E088E691E00E9427
:10023000E003811169C088E691E00E94CA0364C0AE
:1002400081E00E944302882361F064E088E691E047
:100250000E94E003811158C088E691E00E94D50316
:1002600053C084E00E944302882309F44DC04091AA
:100270006C0150916D01609169014115510511F0BA
:10028000615005C040916E0150916F016F5F809188
:1002900068010E94C0008C01FC01E480F58001151A
:1002A000110591F120916C0130916D01F80181816E
:1002B0008150232B09F4F8018183F8016181808149
:1002C0000E94320329833A834B835C836D838C8144
:1002D0009D81222319F08E159F0599F0F801208148
:1002E000F7019081F8018181291309C0F7019181FB
:1002F000891305C061E080E00E94740802C0873065
:1003000070F200E010E0CBCF88E691E00F900F9004
:100310000F900F900F90DF91CF911F910F91FF9051
:10032000EF900C949404CF93DF9300D000D01F92F1
:10033000CDB7DEB70F900F900F900F900F90DF9119
:10034000CF910895BF92CF92DF92EF92FF920F93D9
:100350001F93CF93DF93FC018CE592E090936D01A6
:1003600080936C0188E691E090936302809362022F
:1003700082E08083A481B581109711F48AE001C0E6
:1003800086E081831696CD90DC901797E6012A9639
:10039000E12CF12C05E010E082E0B82EFE0131974F
:1003A000108308833197B082DA82C982C70165E081
:1003B00070E00E94C9088C0D9D1DFC013896DC017F
:1003C00018964C9151816281738184810E940C0343
:1003D000B9E0EB16F10451F01F5F153010F0015039
:1003E00010E08FEFE81AF80A2596D8CFDF91CF9169
:1003F0001F910F91FF90EF90DF90CF90BF900895E5
:10040000E1E6F0E080E880831082A89584B7877FDA
:1004100084BFE0E6F0E080818861808310820895E7
:100420006230710511F168F46130710551F5FC011C
:10043000FF2724A1892F8095922F982394A395A11B
:1004400012C06330710541F064307105D1F4FC01D4
:10045000FF2784A1892B0FC0FC01FF2784A1892BD2
:1004600084A385A19095892309C0FC01FF2724A1BD
:10047000892F8095822384A385A1892B85A381E080
:10048000089580E00895E82FF0E0EE0FFF1FEB5A8B
:10049000FE4F8081882321F0918181E0892702C06D
:1004A00080E090E081700895E82FF0E0EE0FFF1FEC
:1004B000EB5AFE4F8081811102C0818102C080E031
:1004C00090E081700895E82FF0E0EE0FFF1FEB5AE7
:1004D000FE4F80810895E82FF0E0EE0FFF1FEB5AEA
:1004E000FE4F908181E0892708956F927F928F92CD
:1004F0009F92AF92BF92CF92DF92EF92FF920F93B3
:100500001F93CF93DF9300D0CDB7DEB725E5622EE2
:1005100021E0722E32E3C32E31E0D32E812C46E04F
:10052000942EF30180818183F601019111916F0175
:100530005801BB24F50184A1E12EFF2425A130E060
:100540002E213F2141E0232B09F440E090E08E2151
:100550009F21892B29F0411108C023E030E00AC017
:10056000411106C021E030E005C024E030E002C0C7
:1005700022E030E064E070E0C80129833A830E9401
:10058000100262E070E0C8010E941002892D8A9575
:10059000F1F7F50183A190E0E822F92281E02981B9
:1005A0003A81EF2809F080E0F3018083B901C801A6
:1005B0000E9410028394F2E06F0E711C85E0881295
:1005C000B0CF0F900F90DF91CF911F910F91FF90BF
:1005D000EF90DF90CF90BF90AF909F908F907F90E3
:1005E0006F9008950895262F90E063E070E00E94D8
:1005F000C908622F70E0660F771F660F771F860F9E
:10060000971F33E0880F991F3A95E1F76091000139
:1006100070E00E94EE080895CF93DF9300D000D0E1
:100620001F92CDB7DEB749835A836B837C838D835A
:10063000852F0E94F30290E065E070E00E94C908F7
:10064000DC01AA56BD4F95E0FE01319601900D9256
:100650009A95E1F70F900F900F900F900F90DF9108
:10066000CF9108950F931F93CF93DF93CDB7DEB74C
:100670002A970FB6F894DEBF0FBECDBF082F162FF6
:100680000E94F30290E065E070E00E94C9088A567B
:100690009D4F25E0FC01DE01169601900D922A95F2
:1006A000E1F7FC01408131812281632F032E000C90
:1006B000770B802F90E068177907C1F4612F70E005
:1006C000822F022E000C990B8617970779F444238A
:1006D00069F04E833F83288785E0FE013696DE0170
:1006E000119601900D928A95E1F703C019821A8242
:1006F0001B8229813A814B815C816D8170E080E0B1
:1007000090E02A960FB6F894DEBF0FBECDBFDF9102
:10071000CF911F910F910895FC0191816A3070F47F
:10072000292F092E000C330B261B310937FD0EC073
:100730002081318133832283961B07C0191634F43C
:100740002081318133832283915091830895FC016C
:1007500091816A3078F4262F30E0290F311D97FD02
:100760003A9527303105ACF42081318133832283DF
:10077000960F0EC024813581232B19F096304CF44E
:1007800002C0953034F420813181338322839F5F0E
:1007900091830895FC018081181634F42081318101
:1007A00033832283815080830895FC0180818430CB
:1007B00034F420813181338322838F5F80830895D5
:1007C000CF92DF92EF92FF920F931F93CF93DF931D
:1007D00000D000D000D0CDB7DEB78C01E62EFC01F2
:1007E0008081F180F1E06F1302C0FA940EC092E0B4
:1007F000691302C0F39409C0E3E06E1302C0815094
:1008000004C0F4E06F1301C08F5F6F2D0E943203AC
:1008100029833A834B835C836D83CC80DD802223E4
:1008200009F471C0C016D10609F06BC081E0E8126E
:1008300017C06FEF640F832F0E9432035C836D83B8
:100840008C819D81222331F08017910719F463E098
:10085000C80102C062E0C6010E948C0341E054C09E
:1008600092E0E9120BC0F8018181833011F463E05A
:1008700001C062E0C8010E94A703F0CFF3E0EF12CD
:100880001EC0232F330F330B21503109C90165E0FE
:1008900070E00E94C908800F911FFC014085411142
:1008A00032C08285082E000C990B6F2D70E08617E0
:1008B000970751F5C8014E830E94CA0320C0F4E097
:1008C000EF1221C0232F330F330B2F5F3F4FC9018E
:1008D00065E070E00E94C908800F911FFC0140850F
:1008E000411111C08285082E000C990B6F2D70E00C
:1008F0008617970749F4C8014E830E94D5034E819D
:1009000003C042E001C040E0842F26960FB6F89461
:10091000DEBF0FBECDBFDF91CF911F910F91FF9032
:10092000EF90DF90CF900895FC01208141810480F9
:10093000F581E02D309789F030E08081082E000CA1
:10094000990B2817390749F450E02181022E000C39
:10095000330B81E04217530709F080E008951092AD
:10096000800084E0809381001092850010928400C2
:10097000089580918400909185000895AC01809144
:100980008400909185009C01241B350B283E334048
:10099000B0F708952091840030918500820F931F55
:1009A0000C94BE049C01FC01FF2784A1832B84A32B
:1009B00095A1892F832B85A381E00895CF93DF93A1
:1009C000C6E4D1E0899199910E94D20481E0C435B6
:1009D000D807C1F783E090E40E94D20480E090E859
:1009E0000E94D20483E090E10E94D20483E090E868
:1009F0000E94D20483E090E2DF91CF910C94D20464
:100A0000E0915F01F0E0EE0FFF1FE45CFE4F2081FC
:100A10003181F901FF2795A1932B95A3E6E4F1E03D
:100A200097E020813181D901BB2795962C9195972C
:100A300080FF03C03095232301C0232B95962C9370
:100A40008695915032969111ECCFE62FF0E0EE0FA3
:100A5000FF1FE45CFE4F80819181FC01FF2785A18F
:100A60009095892385A360935F010895853098F45C
:100A7000673088F421E030E001C0220F6A95EAF780
:100A8000E82FF0E0EF59FE4F922F90958081892357
:100A90004111822B80830895853080F4673070F493
:100AA000E82FF0E0EF59FE4F81E090E001C0880FA1
:100AB0006A95EAF79081982381E009F480E008952F
:100AC00060916001E62FF0E0EF59FE4F80810E94B7
:100AD0000005809160018F5F853018F4809360017C
:100AE0000895109260010895E1E6F1E0108211820C
:100AF00012821382148208950E94DE040C947405FD
:100B0000009789F0FC012381621B67FD09C0062E56
:100B1000000C770B248130E081E0621773070CF042
:100B200080E08170089580E00895CF93DF93FC0109
:100B3000A62F822F309771F16181461758F5928167
:100B4000291740F59381A91BA7FD24C00A2E000C8C
:100B5000BB0BC481D0E0AC17BD07E4F40E94C00811
:100B6000480F658170E0CD010E94C9080696242FC8
:100B7000269526952695E80FF91FE20FF11D908125
:100B8000892F90E0477002C0959587954A95E2F7C6
:100B9000817001C080E0DF91CF91089541E0611143
:100BA00001C040E0692F0C943605692F0C944C0568
:100BB00041E0611101C040E0692F0C9436054F926D
:100BC0005F926F927F928F929F92AF92BF92CF92DD
:100BD000DF92EF92FF920F931F93CF93DF931F92B9
:100BE000CDB7DEB7862E942E5C01E62EF72E262F8B
:100BF000660F330B281B310987FD3395072F072E0E
:100C0000000C110B091B110997FD139537FF03C049
:100C100077247A9402C07724739417FF03C0662464
:100C20006A9402C066246394290137FF03C051947B
:100C30004194510817FF03C0119501951109401601
:100C40005106A4F06201D594C794F92EA81421F19D
:100C5000692D8A2D9F2D0E94D805C01AD10AD7FE72
:100C600003C0C40CD51CF60CA70CF0CF6801D594BA
:100C7000C794E82EB71681F0692D8E2D9B2D7983B0
:100C80000E94D805C418D5087981D7FE03C0C00ECC
:100C9000D11EE70CB60CEECF692DC7010F90DF9186
:100CA000CF911F910F91FF90EF90DF90CF90BF9069
:100CB000AF909F908F907F906F905F904F900C942B
:100CC000D805FF920F931F93CF93DF93D82FF92E60
:100CD000162FC72F042F792F0E94DF05402F6D2F6D
:100CE0007C2F8D2F9F2D0E94DF05402F612F7C2FA1
:100CF000812F9F2D0E94DF05402F612F7C2F8D2F8C
:100D00009C2F0E94DF05DF91CF911F910F91FF90E3
:100D100008950E947405E1E0F1E0118A14860895B7
:100D2000DF92EF92FF920F931F93CF93DF93D82E12
:100D30007B01162F0F2D8091030190910401C0E0DB
:100D40000197A1F50F2D0C1BE0910901F0910A010B
:100D50008181C817C0F4D0E08091090190910A0107
:100D6000FC012281D21768F42D2F4C2F6D2D0E948B
:100D70009505682F8D2F8E0D902F0E94D805DF5F6F
:100D8000EBCFCF5FDFCFC0E0E0910901F0910A0126
:100D90008281C81740F460E08C2F8E0D902F0E9446
:100DA000D805CF5FF1CF015031C0CF5F1C2F1E0D92
:100DB000E0910901F0910A018181C817B0F4D0E0F7
:100DC0008091090190910A01FC012281D21768F7F4
:100DD0002D2F4C2F6D2D0E949505682F812F9D2F53
:100DE0009F0D0E94D805DF5FEBCFC0E0E0910901C5
:100DF000F0910A018281C81740F460E0812F9C2F96
:100E00009F0D0E94D805CF5FF1CF1F5F812F902FDC
:100E1000DF91CF911F910F91FF90EF90DF90089598
:100E20001F93CF93DF93182FEC018C2F811B999187
:100E3000992351F0892F0E949006BC018C2F811BB1
:100E4000653014F477FFF1CFDF91CF911F910895B2
:100E50000F931F93CF93DF93EC019B0110920D0131
:100E600040930E01109211010091090110910A01A5
:100E70000115110509F449C0F8018181609107014C
:100E80007091080190E00E94C908BC0180910B019B
:100E900090910C010E94DA08CB016AE070E00E9498
:100EA000C9089093100180930F013093060120939D
:100EB000050140E250E0BE0182E191E00E9402099A
:100EC00080910101909102010197F9F4FE010190D6
:100ED0000020E9F7CF010197F8019181692F70E0B7
:100EE0006F5F7F4F8C1B0E94C008815020910301CF
:100EF000309104012130310511F095E001C097E0F7
:100F0000981718F48EEF80931101DF91CF911F9104
:100F10000F91089520910301309104012130310592
:100F200011F070E001C076E04FEF60E00E9428070A
:100F3000089590E09093080180930701089590939D
:100F400002018093010108959093040180930301AD
:100F5000089590930A018093090108958091660194
:100F600090916701019690936701809366012091AB
:100F70000F01309110018217930708F469C0109295
:100F8000670110926601E0910D01F0E0EF5FFE4F06
:100F9000818981110AC080910E01823008F458C005
:100FA000815080930E0110920D0180910D0190E00F
:100FB000FC01EF5FFE4F2189222309F449C04091D3
:100FC000010150910201209111014115510521F0BB
:100FD0004130510599F024C0211122C060910501D2
:100FE000709106018E5E9E4F0E94100790E001975F
:100FF00090910D01890F80930D0112C06091050140
:101000007091060140910301509104014130510556
:1010100011F4720F01C0621B8E5E9E4F0E9410077A
:10102000809111018F5F80931101082E000C990BA4
:10103000E0910901F0910A01218130E02817390778
:101040003CF41092110180910D018F5F80930D018E
:101050000C946005CF93DF93C1E0D1E09B878A8732
:101060000E947C0584E190E09F838E83DF91CF9185
:101070000C948906182F092FF62E0E94AF040E94A7
:10108000B904C12FD02F8E819F810E94BE04E881B8
:10109000F9818A819B8109958E819F812C813D8177
:1010A000280F391F3F832E830E94B904E12FF02FB0
:1010B000AFEFBFEF40E04F1531F326813781BC0120
:1010C000621B730B9B012F3F7FE7370710F4EF0183
:1010D000DACF3195219531092A173B0710F4D90150
:1010E000EF014F5F3896E7CF811105C0662311F0FD
:1010F000429A0895429808953A9A429A08950F9311
:101100001F93CF93DF93CDB7DEB760970FB6F894F8
:10111000DEBF0FBECDBF8E010F5F1F4F80E1F80114
:1011200011928A95E9F789E590E09A8389838DE7A2
:1011300090E09E838D838EED90E09A87898788E387
:1011400091E09E878D870E9400020E94F2028AEF42
:1011500090E00E942A0888E691E00E94A20162E0E5
:10116000C8010E943A0880E090E060960FB6F894BB
:10117000DEBF0FBECDBFDF91CF911F910F910895BC
:10118000002480FD060E660F11F08695D1F7802DA4
:1011900008950024552704C0080E591F880F991F71
:1011A000009729F076956795B8F37105B9F7802D0A
:1011B000952F0895AA1BBB1B51E107C0AA1FBB1F97
:1011C000A617B70710F0A61BB70B881F991F5A95D3
:1011D000A9F780959095BC01CD01089597FB072E46
:1011E00016F4009407D077FD09D00E94DA0807FCB6
:1011F00005D03EF4909581959F4F08957095619527
:101200007F4F0895FB01DC014150504048F00190B0
:101210000D920020C9F701C01D9241505040E0F7E7
:061220000895F894FFCFD1
:10122600390000000000001400000000000000006B
:1012360000000000000000000000000000000000A8
:101246000000000000000000000000000000000098
:101256000000038003400320008003100340008049
:101266000310038003200040002000100008000443
:041276000002000171
:00000001FF
