:100000000C943A000C9457000C9457000C94570031
:100010000C9457000C9457000C9457000C94570004
:100020000C9457000C9457000C9457000C945700F4
:100030000C9457000C9457000C9457000C945700E4
:100040000C9457000C9457000C9457000C945700D4
:100050000C9457000C9457000C9457000C945700C4
:100060000C9457000C9457000C9457000C945700B4
:100070000C94570011241FBECFEFD4E0DEBFCDBFDC
:1000800012E0A0E0B1E0E6EFF4E102C005900D92CD
:10009000AE30B107D9F723E0AEE0B2E001C01D9267
:1000A000A434B207E1F70E94D3090C94790A0C94A6
:1000B00000000C940209CF93DF9300D0CDB7DEB7D8
:1000C00089839A830E94DD072091000189819A81AA
:1000D000211104C020910F02222319F00E94DE0892
:1000E00005C041E060E070E00E947C080F900F9036
:1000F000DF91CF910C940209BF92CF92DF92EF92E1
:10010000FF920F931F93CF93DF9300D000D000D0C6
:10011000CDB7DEB78C010E94DD0780910F028111FF
:1001200077C080910001811173C061E0D8018D9189
:100130009C910E942C07D8011296ED91FC91139787
:1001400061E0808191810E942C0786E0B82E011524
:10015000110529F17801B6E0EB0EF11C6801E4E22B
:10016000CE0ED11CF701DE0111968B2D01900D9260
:100170008A95E1F7F7018081882329F061E08A817F
:100180009B810E942C07F6E0EF0EF11CEC14FD049D
:1001900049F7D80112960D911C911397D8CF209151
:1001A0000E022223A9F130E021503109C90165E096
:1001B00070E00E94310A865B9D4F892B49F5C90189
:1001C00065E070E00E94310AFC01E85BFD4F95E0BC
:1001D000DE01119601900D929A95E1F761E0898117
:1001E0009A810E942C070E94020984E690E02696DC
:1001F0000FB6F894DEBF0FBECDBFDF91CF911F9138
:100200000F91FF90EF90DF90CF90BF900C941E065F
:1002100026960FB6F894DEBF0FBECDBFDF91CF910B
:100220001F910F91FF90EF90DF90CF90BF900895B6
:10023000FC0182819381892B41F081E080930F0240
:1002400060ED71E08AED91E004C06AED71E080ED4F
:1002500091E00C945B0081E080930F0265EE71E009
:10026000CB010C945B00CF93C82F362FDA0120917D
:100270000E022E3188F4822F90E065E070E00E943B
:10028000310AFC01E85BFD4F2F5F20930E02C08313
:100290003183B483A38302C0E0E0F0E0CF01CF91CB
:1002A00008958F929F92BF92CF92DF92EF92FF922A
:1002B0000F931F93CF93DF931F92CDB7DEB7DC016F
:1002C0008EED92E0909327028093260284E292E0E2
:1002D0009093E3028093E20282E08C931296ED9178
:1002E000FC911397309711F480E001C086E01196DD
:1002F0008C9382E0808382819381892B11F480E04A
:1003000001C086E081830481158125E0D12C82E043
:10031000B82E01151105F1F14801F9E08F0E911C7D
:10032000E12CF12CC12C84E08D1510F42150D12C3E
:10033000F80182819381892B09F421E0F40132973D
:10034000D082319620833297B082F40112830183E8
:10035000C082FFEFEF1AFF0AC70166E070E00E945B
:10036000310AF801E80FF91F4081518162817381E0
:100370008481958129830E945C04D394C39486E090
:10038000880E911C2981E5E0CE12CDCFF8010281C3
:100390001381BFCF84E292E00E947C000F90DF9136
:1003A000CF911F910F91FF90EF90DF90CF90BF9072
:1003B0009F908F900C940209BF92CF92DF92EF92A0
:1003C000FF920F931F93CF93DF9300D000D000D004
:1003D000CDB7DEB70E94C503809100018823E1F00C
:1003E00084E00E9493038823B9F0109200011092D8
:1003F0000F0284E292E026960FB6F894DEBF0FBE9D
:10040000CDBFDF91CF911F910F91FF90EF90DF90C3
:10041000CF90BF900C947C0080910F02882311F143
:1004200084E00E9493038823E9F084E292E00E9432
:10043000510110920F0281E0809300016BEF71E097
:10044000CB0126960FB6F894DEBF0FBECDBFDF916D
:10045000CF911F910F91FF90EF90DF90CF90BF90C1
:100460000C945B0080910F0281110AC18091000100
:10047000811106C10E949303882389F061E084E220
:1004800092E00E941605811105C06AE084E292E0C4
:100490000E94DA0484E292E00E947C00D3C082E0F1
:1004A0000E949303882369F062E084E292E00E9454
:1004B00016058111EFCF6AE084E292E00E94ED041C
:1004C000E9CF83E00E949303882361F063E084E234
:1004D00092E00E9416058111DDCF84E292E00E9435
:1004E0000805D8CF81E00E949303882361F064E07F
:1004F00084E292E00E9416058111CCCF84E292E062
:100500000E940F05C7CF84E00E949303882309F45B
:1005100099C040912602509127024115510521F4BE
:100520004091280250912902609125028091240275
:100530000E9433018C01DC011396ED90FC9014971E
:10054000BB24B394F801828181117CC020912602E2
:1005500030912702F80181818150232B11F0818392
:1005600001C08183F801618180810E948404298314
:100570003A834B835C836D837E83C52ED12C84E2CA
:1005800092E00E947C00D70118964C91C60166E06B
:1005900070E00E94310AF701E80FF91F2681D801A7
:1005A00011963C91222339F1828593858E159F0502
:1005B00011F550E0832F032E000C990B841795073B
:1005C000D1F421502683C601019666E070E00E94B6
:1005D000310AF701E80FF91F40815181628173816F
:1005E000848195810E945C04F801B28284E292E0E9
:1005F0000E947C00A7CFD8019C91F70180819813BD
:1006000012C0818138130FC0609110026B25609376
:10061000100280E00E94C80984E292E00E94180162
:1006200000E010E08FCF373008F48CCFD80112965D
:10063000BC92609110026B256093100280E00E94D2
:10064000C80980CF84E292E00E94DB0581110E94FC
:100650002B0180912502811113C084E292E026963D
:100660000FB6F894DEBF0FBECDBFDF91CF911F91C3
:100670000F91FF90EF90DF90CF90BF900C941801F6
:1006800026960FB6F894DEBF0FBECDBFDF91CF9197
:100690001F910F91FF90EF90DF90CF90BF90089542
:1006A000E1E6F0E080E880831082A89584B7877F38
:1006B00084BFE0E6F0E08081886180831082089545
:1006C0006230710511F168F46130710551F5FC017A
:1006D000FF2724A1892F8095922F982394A395A179
:1006E00012C06330710541F064307105D1F4FC0132
:1006F000FF2784A1892B0FC0FC01FF2784A1892B30
:1007000084A385A19095892309C0FC01FF2724A11A
:10071000892F8095822384A385A1892B85A381E0DD
:10072000089580E00895E82FF0E0EE0FFF1FEF5EE0
:10073000FD4F8081882321F0918181E0892702C0CB
:1007400080E090E081700895E82FF0E0EE0FFF1F49
:10075000EF5EFD4F8081811102C0818102C080E087
:1007600090E081700895E82FF0E0EE0FFF1FEF5E3C
:10077000FD4F80810895E82FF0E0EE0FFF1FEF5E40
:10078000FD4F908181E0892708956F927F928F922B
:100790009F92AF92BF92CF92DF92EF92FF920F9310
:1007A0001F93CF93DF9300D0CDB7DEB721E1622E48
:1007B00022E0722E3EEAC32E31E0D32E812C46E099
:1007C000942EF30180818183F601019111916F01D3
:1007D0005801BB24F50184A1E12EFF2425A130E0BE
:1007E0002E213F2141E0232B09F440E090E08E21AF
:1007F0009F21892B29F0411108C023E030E00AC075
:10080000411106C021E030E005C024E030E002C024
:1008100022E030E064E070E0C80129833A830E945E
:10082000600362E070E0C8010E946003892D8A9530
:10083000F1F7F50183A190E0E822F92281E0298116
:100840003A81EF2809F080E0F3018083B901C80103
:100850000E9460038394F2E06F0E711C85E08812A1
:10086000B0CF0F900F90DF91CF911F910F91FF901C
:10087000EF90DF90CF90BF90AF909F908F907F9040
:100880006F9008950895462F90E063E070E00E9415
:10089000310A9C01842F90E065E070E00E94310AEB
:1008A000820F931F23E0880F991F2A95E1F76BE0D1
:1008B00070E00E94560A0895CF93DF9300D000D0D5
:1008C00000D0CDB7DEB749835A836B837C838D8399
:1008D0009E83852F0E94430490E066E070E00E94B2
:1008E000310ADC01AE5FBC4F96E0FE01319601900B
:1008F0000D929A95E1F726960FB6F894DEBF0FBEDB
:10090000CDBFDF91CF9108950F931F93CF93DF93C6
:10091000CDB7DEB72C970FB6F894DEBF0FBECDBFB4
:10092000082F162F0E94430490E066E070E00E94BA
:10093000310A8E5F9C4F26E0FC01DE011796019084
:100940000D922A95E1F7FC0131812281432F032E7C
:10095000000C550B802F90E048175907A9F4612F20
:1009600070E0822F022E000C990B8617970761F416
:100970003887298786E0FE013796DE0111960190BF
:100980000D928A95E1F703C019821A821B82298190
:100990003A814B815C816D817E8180E090E02C9674
:1009A0000FB6F894DEBF0FBECDBFDF91CF911F9180
:1009B0000F910895FC0191816A3050F4292F092E7E
:1009C000000C330B261B310937FD06C0961B03C0F4
:1009D000191614F4915091830895FC0191816A30A5
:1009E00058F4262F30E0290F311D97FD3A95273016
:1009F00031056CF4960F0AC022813381232B19F044
:100A000096302CF402C0953014F49F5F91830895C2
:100A1000FC019081191614F4915090830895FC0103
:100A20009081943014F49F5F90830895EF92FF9229
:100A30000F931F93CF93DF93CDB7DEB727970FB6F2
:100A4000F894DEBF0FBECDBF8C01E62EDC018C9189
:100A50001196FC90B1E06B1302C0FA940EC0E2E074
:100A60006E1302C0F39409C0F3E06F1302C081500B
:100A700004C094E0691301C08F5F6F2D0E9484044D
:100A800029833A834B835C836D837E83852F90E03B
:100A9000019666E070E00E94310AAD81BE81A80F28
:100AA000B91F1196EC91119714968D919C91159701
:100AB0002C91222309F470C08017910709F06AC0B5
:100AC000A1E0EA1205C062E0C8010E94DA040BC08E
:100AD000B2E0EB120CC0F8018181833031F463E0A5
:100AE000C8010E94ED0421E058C062E0F9CFF3E0B4
:100AF000EF1226C08E2FEE0F990BDC01119766E0E6
:100B000070E00E94310A800F911FFC0120812111A9
:100B100043C0CD0166E070E00E94310A800F911F52
:100B2000DC0118968C91082E000C990B6F2D70E04B
:100B30008617970791F5C8012F830E94080528C0E2
:100B4000B4E0EB1229C00E2E000CFF0B3196CF0142
:100B5000019666E070E00E94310A800F911FDC016F
:100B60002C91211119C0CF0166E070E00E94310A7A
:100B7000800F911FFC018085082E000C990B6F2DB2
:100B800070E08617970749F4C8012F830E940F056C
:100B90002F8103C022E001C020E0822F27960FB6EC
:100BA000F894DEBF0FBECDBFDF91CF911F910F91A3
:100BB000FF90EF900895FC0140812181A281B381D3
:100BC00050E0109759F08C91082E000C990B4817A3
:100BD0005907B9F430E011964C910CC00480F581AE
:100BE000E02D8081082E000C990B4817590749F415
:100BF00030E04181042E000C550B81E024173507AD
:100C000009F080E008951092800084E080938100D4
:100C10001092850010928400089580918400909134
:100C200085000895AC0180918400909185009C011D
:100C3000241B350B283E3340B0F7089520918400E3
:100C400030918500820F931F0C9412069C01FC01C9
:100C5000FF2784A1832B84A395A1892F832B85A3B0
:100C600081E00895CF93DF93C2ECD1E0899199910F
:100C70000E94260681E0C03DD807C1F783E090E4DA
:100C80000E94260680E090E80E94260683E090E11C
:100C90000E94260683E090E80E94260683E090E208
:100CA000DF91CF910C942606E0911B02F0E0EE0F4D
:100CB000FF1FE854FE4F20813181F901FF2795A1E4
:100CC000932B95A3E2ECF1E097E020813181D901EB
:100CD000BB2795962C91959780FF03C030952323D1
:100CE00001C0232B95962C938695915032969111A5
:100CF000ECCFE62FF0E0EE0FFF1FE854FE4F8081AF
:100D00009181FC01FF2785A19095892385A360939C
:100D10001B020895853098F4673088F421E030E0B4
:100D200001C0220F6A95EAF7E82FF0E0E35EFD4F7D
:100D3000922F9095808189234111822B8083089581
:100D4000853080F4673070F4E82FF0E0E35EFD4F0B
:100D500081E090E001C0880F6A95EAF790819823BE
:100D600081E009F480E0089560911C02E62FF0E034
:100D7000E35EFD4F80810E94540680911C028F5FCC
:100D8000853018F480931C02089510921C02089577
:100D9000EDE1F2E010821182128213821482089532
:100DA0000E9432060C94C806009789F0FC0123814A
:100DB000621B67FD09C0062E000C770B248130E012
:100DC00081E0621773070CF080E08170089580E085
:100DD0000895CF93DF93FC01A62F822F309771F1F6
:100DE0006181461758F59281291740F59381A91B17
:100DF000A7FD24C00A2E000CBB0BC481D0E0AC17A9
:100E0000BD07E4F40E94280A480F658170E0CD0117
:100E10000E94310A0696242F269526952695E80FDE
:100E2000F91FE20FF11D9081892F90E0477002C0F9
:100E3000959587954A95E2F7817001C080E0DF9132
:100E4000CF91089541E0611101C040E0692F0C94F9
:100E50008A06692F0C94A00641E0611101C040E0B0
:100E6000692F0C948A064F925F926F927F928F92B5
:100E70009F92AF92BF92CF92DF92EF92FF920F9329
:100E80001F93CF93DF931F92CDB7DEB7862E942E9C
:100E90005C01E62EF72E262F660F330B281B310937
:100EA00087FD3395072F072E000C110B091B110925
:100EB00097FD139537FF03C077247A9402C07724F7
:100EC000739417FF03C066246A9402C06624639477
:100ED000290137FF03C051944194510817FF03C003
:100EE00011950195110940165106A4F06201D5949F
:100EF000C794F92EA81421F1692D8A2D9F2D0E94E7
:100F00002C07C01AD10AD7FE03C0C40CD51CF60C9E
:100F1000A70CF0CF6801D594C794E82EB71681F0DE
:100F2000692D8E2D9B2D79830E942C07C418D5081E
:100F30007981D7FE03C0C00ED11EE70CB60CEECFF0
:100F4000692DC7010F90DF91CF911F910F91FF90F5
:100F5000EF90DF90CF90BF90AF909F908F907F9059
:100F60006F905F904F900C942C07FF920F931F93FC
:100F7000CF93DF93D82FF92E162FC72F042F792F59
:100F80000E943307402F6D2F7C2F8D2F9F2D0E94A5
:100F90003307402F612F7C2F812F9F2D0E94330715
:100FA000402F612F7C2F8D2F9C2F0E943307DF91C4
:100FB000CF911F910F91FF9008950E94C806E1E024
:100FC000F1E0118A14860895DF92EF92FF920F9359
:100FD0001F93CF93DF93D82E7B01162F0F2D809177
:100FE000030190910401C0E00197A1F50F2D0C1BA6
:100FF000E0910901F0910A018181C817C0F4D0E0A5
:101000008091090190910A01FC012281D21768F4B4
:101010002D2F4C2F6D2D0E94E906682F8D2F8E0DE0
:10102000902F0E942C07DF5FEBCFCF5FDFCFC0E0B8
:10103000E0910901F0910A018281C81740F460E053
:101040008C2F8E0D902F0E942C07CF5FF1CF015077
:1010500031C0CF5F1C2F1E0DE0910901F0910A01F4
:101060008181C817B0F4D0E08091090190910A0104
:10107000FC012281D21768F72D2F4C2F6D2D0E9475
:10108000E906682F812F9D2F9F0D0E942C07DF5F9F
:10109000EBCFC0E0E0910901F0910A018281C8170D
:1010A00040F460E0812F9C2F9F0D0E942C07CF5FA2
:1010B000F1CF1F5F812F902FDF91CF911F910F9163
:1010C000FF90EF90DF9008951F93CF93DF93182F39
:1010D000EC018C2F811B9991992351F0892F0E944B
:1010E000E407BC018C2F811B653014F477FFF1CF2E
:1010F000DF91CF911F9108950F931F93CF93DF93AB
:10110000EC019B0110920D0140930E011092110110
:101110000091090110910A010115110509F449C056
:10112000F8018181609107017091080190E00E94AF
:10113000310ABC0180910B0190910C010E94420A7E
:10114000CB016AE070E00E94310A90931001809315
:101150000F01309306012093050140E250E0BE01EB
:1011600082E191E00E946A0A80910101909102015E
:101170000197F9F4FE0101900020E9F7CF010197F2
:10118000F8019181692F70E06F5F7F4F8C1B0E9487
:10119000280A81502091030130910401213031054A
:1011A00011F095E001C097E0981718F48EEF809346
:1011B0001101DF91CF911F910F91089520910301AB
:1011C000309104012130310511F070E001C076E06A
:1011D0004FEF60E00E947C08089590E09093080132
:1011E000809307010895909302018093010108956F
:1011F0009093040180930301089590930A018093D2
:101200000901089580912202909123020196909302
:1012100023028093220220910F0130911001821746
:10122000930708F469C01092230210922202E09101
:101230000D01F0E0EF5FFE4F818981110AC08091BE
:101240000E01823008F458C0815080930E01109234
:101250000D0180910D0190E0FC01EF5FFE4F2189AF
:10126000222309F449C040910101509102012091CB
:1012700011014115510521F04130510599F024C06B
:10128000211122C060910501709106018E5E9E4F72
:101290000E94640890E0019790910D01890F80935E
:1012A0000D0112C06091050170910601409103018A
:1012B000509104014130510511F4720F01C0621BBD
:1012C0008E5E9E4F0E946408809111018F5F809313
:1012D0001101082E000C990BE0910901F0910A010F
:1012E000218130E0281739073CF4109211018091D8
:1012F0000D018F5F80930D010C94B406CF93DF93A3
:10130000C1E0D1E09B878A870E94D00684E190E00B
:101310009F838E83DF91CF910C94DD07182F092FC7
:10132000F62E0E9403060E940D06C12FD02F8E813B
:101330009F810E941206E881F9818A819B8109952B
:101340008E819F812C813D81280F391F3F832E8301
:101350000E940D06E12FF02FAFEFBFEF40E04F15D9
:1013600031F326813781BC01621B730B9B012F3F38
:101370007FE7370710F4EF01DACF31952195310976
:101380002A173B0710F4D901EF014F5F3896E7CFDA
:10139000811105C0662311F0429A0895429808957C
:1013A0003A9A429A08950F931F93CF93DF93CDB744
:1013B000DEB760970FB6F894DEBF0FBECDBF8E01CB
:1013C0000F5F1F4F80E1F80111928A95E9F789E5D7
:1013D00090E09A8389838DE790E09E838D838CEDE6
:1013E00091E09A87898788E391E09E878D870E94A4
:1013F00050030E9442048AEF90E00E947E0982E33B
:1014000091E00E94FD088AE00E94ED0881E090E0F2
:101410000E94F30881E090E00E94F80884E292E0E4
:101420000E9451016BEF71E0CB010E945B0062E012
:10143000C8010E948E0980E090E060960FB6F89493
:10144000DEBF0FBECDBFDF91CF911F910F910895E9
:10145000002480FD060E660F11F08695D1F7802DD1
:1014600008950024552704C0080E591F880F991F9E
:10147000009729F076956795B8F37105B9F7802D37
:10148000952F0895AA1BBB1B51E107C0AA1FBB1FC4
:10149000A617B70710F0A61BB70B881F991F5A9500
:1014A000A9F780959095BC01CD01089597FB072E73
:1014B00016F4009407D077FD09D00E94420A07FC79
:1014C00005D03EF4909581959F4F08957095619554
:1014D0007F4F0895FB01DC014150504048F00190DE
:1014E0000D920020C9F701C01D9241505040E0F715
:0614F0000895F894FFCFFF
:1014F60001000000000000140000000000000000D1
:1015060000000000000000000000000000000000D5
:1015160000000000000000000000000000000000C5
:101526000000010305203B0200009220EB737D5F63
:10153600DE3DA552EA7A14004A222229BA2ED005A7
:101546000014C0010020A4126A2B9A74A372A33857
:10155600ED498F38CE2AA712AA2AAE4910041014D4
:101566005444380E11152A250000EA5BEB3A4F72F7
:101576006B3BCF73CF134F7AED5B9774247B5D562D
:101586004972FD5B6F5B6F7BEF136F7FEF57CE3852
:1015960097246D7B6D2BED5FAD5AAD24A77203804A
:1015A60003400320008003100340008003100380E3
:1015B6000320004000200010000800040002000183
:1015C600444546454154203A2800564943544F5213
:1015D60059203A29004348524953544D4153205407
:1015E600525543452C203139313400424154544C34
:0E15F60045204F46204C454420313931340009
:00000001FF
