:100000000C943A000C9457000C9457000C94570031
:100010000C9457000C9457000C9457000C94570004
:100020000C9457000C9457000C9457000C945700F4
:100030000C9457000C9457000C9457000C945700E4
:100040000C9457000C9457000C9457000C945700D4
:100050000C9457000C9457000C9457000C945700C4
:100060000C9457000C9457000C9457000C945700B4
:100070000C94570011241FBECFEFD4E0DEBFCDBFDC
:1000800011E0A0E0B1E0EAEDF1E102C005900D92CF
:10009000A435B107D9F723E0A4E5B1E001C01D9272
:1000A000A73DB207E1F70E944D080C94EB080C94B1
:1000B0000000FF920F931F93CF93DF93CDB7DEB76E
:1000C00027970FB6F894DEBF0FBECDBF0E948707FB
:1000D00081E090E00E947D0760E080916A0190914C
:1000E0006B010E94B10561E0809168019091690106
:1000F0000E94B10500E711E087E0F82EF801DE016B
:1001000011968F2D01900D928A95E1F7F80180816B
:10011000882329F061E08A819B810E94B105095FF3
:100120001F4FF1E0023D1F0749F727960FB6F894DD
:10013000DEBF0FBECDBFDF91CF911F910F91FF901A
:10014000089508950895CF93C82F362FDA0120918E
:100150005401223088F4822F90E066E070E00E9423
:10016000A308FC01EE52FE4F2F5F20935401C08381
:100170003183B583A48302C0E0E0F0E0CF01CF91EA
:100180000895EF92FF920F931F93CF93DF93CDB714
:10019000DEB727970FB6F894DEBF0FBECDBF0E9423
:1001A000470280E00E941502882361F061E088E642
:1001B00091E00E94A903811186C088E691E00E9427
:1001C000650381C082E00E941502882361F062E02D
:1001D00088E691E00E94A903811175C088E691E04C
:1001E0000E947C0370C083E00E941502882361F0A6
:1001F00063E088E691E00E94A903811164C088E66B
:1002000091E00E9493035FC081E00E941502882361
:1002100061F064E088E691E00E94A903811153C077
:1002200088E691E00E949E034EC084E00E94150281
:10023000882309F448C040916C0150916D01609190
:1002400069014115510521F440916E0150916F01F2
:100250006F5F809168010E94A3008C01FC01E48023
:10026000F5800115110579F120916C0130916D0136
:10027000F8018181232B11F08F5F02C08150F801BA
:100280008183F801618180810E940B0329833A8375
:100290004B835C836D837E838F838E819F8122233A
:1002A00019F08E159F0561F0F8019081F7018081AA
:1002B0009813D7CFF8019181F70181819813D1CF9D
:1002C00000E010E0CECF88E691E027960FB6F894D4
:1002D000DEBF0FBECDBFDF91CF911F910F91FF9079
:1002E000EF900C946D04CF93DF93CDB7DEB72797D3
:1002F0000FB6F894DEBF0FBECDBF27960FB6F894A9
:10030000DEBF0FBECDBFDF91CF910895BF92CF92D8
:10031000DF92EF92FF920F931F93CF93DF937C01B5
:1003200084E0D7018C9383E011968C93E7012A96A1
:10033000C12CD12C01E010E082E0B82EFE013197F3
:10034000108308833197B082FC82EB82C60167E09C
:1003500070E00E94A3088E0D9F1DFC013896DC0101
:1003600018962C91318142815381648175818681F7
:100370000E94DE021F5FBDE0CB16D10449F01830A9
:1003800010F00F5F10E0BFEFCB1ADB0A2796D6CF35
:10039000DF91CF911F910F91FF90EF90DF90CF9061
:1003A000BF900895E1E6F0E080E880831082A89590
:1003B00084B7877F84BFE0E6F0E080818861808336
:1003C000108208956230710511F168F46130710591
:1003D00051F5FC01FF2724A1892F8095922F9823A6
:1003E00094A395A112C06330710541F0643071058A
:1003F000D1F4FC01FF2784A1892B0FC0FC01FF274A
:1004000084A1892B84A385A19095892309C0FC012F
:10041000FF2724A1892F8095822384A385A1892B7E
:1004200085A381E0089580E00895E82FF0E0EE0FC5
:10043000FF1FEB5AFE4F8081882321F0918181E0DC
:10044000892702C080E090E081700895E82FF0E0F5
:10045000EE0FFF1FEB5AFE4F8081811102C0818198
:1004600002C080E090E081700895E82FF0E0EE0F88
:10047000FF1FEB5AFE4F80810895E82FF0E0EE0F4A
:10048000FF1FEB5AFE4F908181E0892708956F92FC
:100490007F928F929F92AF92BF92CF92DF92EF9214
:1004A000FF920F931F93CF93DF9300D0CDB7DEB7AA
:1004B00025E5622E21E0722E32E3C32E31E0D32EE9
:1004C000812C46E0942EF30180818183F601019115
:1004D00011916F015801BB24F50184A1E12EFF2485
:1004E00025A130E02E213F2141E0232B09F440E0FB
:1004F00090E08E219F21892B29F0411108C023E033
:1005000030E00AC0411106C021E030E005C024E01F
:1005100030E002C022E030E064E070E0C8012983EE
:100520003A830E94E20162E070E0C8010E94E201A9
:10053000892D8A95F1F7F50183A190E0E822F9224F
:1005400081E029813A81EF2809F080E0F30180837E
:10055000B901C8010E94E2018394F2E06F0E711CA0
:1005600085E08812B0CF0F900F90DF91CF911F914F
:100570000F91FF90EF90DF90CF90BF90AF909F9042
:100580008F907F906F9008950895262F90E063E0FC
:1005900070E00E94A308622F70E0660F771F660F5D
:1005A000771F860F971F33E0880F991F3A95E1F761
:1005B0006091000170E00E94C8080895CF93DF9316
:1005C000CDB7DEB727970FB6F894DEBF0FBECDBF0D
:1005D00029833A834B835C836D837E838F83642F6F
:1005E000832F0E94C50290E067E070E00E94A3089C
:1005F000DC01A85BBD4F97E0FE01319601900D92A2
:100600009A95E1F727960FB6F894DEBF0FBECDBFDF
:10061000DF91CF9108950F931F93CF93DF93CDB7C1
:10062000DEB72E970FB6F894DEBF0FBECDBF082FF2
:10063000162F0E94C50290E067E070E00E94A308B8
:10064000885B9D4F27E0FC01DE01189601900D921A
:100650002A95E1F7FC01408131812281632F032E2D
:10066000000C770B802F90E068177907C1F4612F99
:1006700070E0822F022E000C990B8617970779F4F1
:10068000442369F0488739872A8787E0FE01389636
:10069000DE01119601900D928A95E1F703C019824F
:1006A0001A821B8229813A814B815C816D817E8116
:1006B0008F8190E02E960FB6F894DEBF0FBECDBFAF
:1006C000DF91CF911F910F910895FC012481358115
:1006D0008181232B41F0853074F420813181338373
:1006E00022838F5F07C0181634F420813181338351
:1006F0002283815081830895FC0124813581818189
:10070000232B41F0181674F4208131813383228326
:10071000815007C0853034F42081318133832283B6
:100720008F5F81830895FC018081181634F4208145
:10073000318133832283815080830895FC0180813D
:10074000873034F420813181338322838F5F80832B
:100750000895CF92DF92EF92FF920F931F93CF9362
:10076000DF93CDB7DEB728970FB6F894DEBF0FBE84
:10077000CDBF8C01E62EFC018081F180F1E06F138A
:1007800002C0F3940EC092E0691302C0FA9409C04B
:10079000E3E06E1302C0815004C0F4E06F1301C0A7
:1007A0008F5F6F2D0E940B0329833A834B835C83F9
:1007B0006D837E838F83CE80DF80222309F47CC00B
:1007C000C016D10609F076C081E0E8121EC061E0D3
:1007D000640F832F0E940B037E838F838E819F8102
:1007E000222341F08017910729F4C8010E94650374
:1007F000C80107C0C6010E946503C6010E946503C7
:10080000C6010E94650341E058C092E0E9120FC0A2
:10081000F80181818250823018F0C8010E947C0367
:10082000C8010E947C03C8010E947C03ECCFF3E066
:10083000EF121EC0232F330F330B21503109C90192
:1008400067E070E00E94A308800F911FFC014085C3
:10085000411132C08285082E000C990B6F2D70E07B
:100860008617970751F5C80148870E94930320C057
:10087000F4E0EF1221C0232F330F330B2F5F3F4FD4
:10088000C90167E070E00E94A308800F911FFC017E
:100890004085411111C08285082E000C990B6F2DE7
:1008A00070E08617970749F4C80148870E949E03A5
:1008B000488503C042E001C040E0842F28960FB66F
:1008C000F894DEBF0FBECDBFDF91CF911F910F9186
:1008D000FF90EF90DF90CF900895FC01208141813F
:1008E0000480F581E02D309789F030E08081082E7A
:1008F000000C990B2817390749F450E02181022E8A
:10090000000C330B81E04217530709F080E0089593
:100910001092800084E080938100109285001092F4
:100920008400089580918400909185000895AC0121
:1009300080918400909185009C01241B350B283EFA
:100940003340B0F708952091840030918500820FE4
:10095000931F0C9497049C01FC01FF2784A1832B17
:1009600084A395A1892F832B85A381E00895CF933C
:10097000DF93C6E4D1E0899199910E94AB0481E0B4
:10098000C435D807C1F783E090E40E94AB0480E04F
:1009900090E80E94AB0483E090E10E94AB0483E006
:1009A00090E80E94AB0483E090E2DF91CF910C9439
:1009B000AB04E0915F01F0E0EE0FFF1FE45CFE4F3F
:1009C00020813181F901FF2795A1932B95A3E6E4BE
:1009D000F1E097E020813181D901BB2795962C91D8
:1009E000959780FF03C03095232301C0232B959654
:1009F0002C938695915032969111ECCFE62FF0E032
:100A0000EE0FFF1FE45CFE4F80819181FC01FF2708
:100A100085A19095892385A360935F010895853012
:100A200098F4673088F421E030E001C0220F6A9525
:100A3000EAF7E82FF0E0EF59FE4F922F9095808172
:100A400089234111822B80830895853080F467309B
:100A500070F4E82FF0E0EF59FE4F81E090E001C024
:100A6000880F6A95EAF79081982381E009F480E085
:100A7000089560916001E62FF0E0EF59FE4F80810C
:100A80000E94D904809160018F5F853018F48093B3
:100A900060010895109260010895E1E6F1E010828E
:100AA000118212821382148208950E94B7040C945A
:100AB0004D05009789F0FC012381621B67FD09C089
:100AC000062E000C770B248130E081E0621773075B
:100AD0000CF080E08170089580E00895CF93DF935B
:100AE000FC01A62F822F309771F16181461758F5CE
:100AF0009281291740F59381A91BA7FD24C00A2ED6
:100B0000000CBB0BC481D0E0AC17BD07E4F40E941D
:100B10009A08480F658170E0CD010E94A3080696EF
:100B2000242F269526952695E80FF91FE20FF11D33
:100B30009081892F90E0477002C0959587954A95DE
:100B4000E2F7817001C080E0DF91CF91089541E02C
:100B5000611101C040E0692F0C940F05692F0C94BE
:100B6000250541E0611101C040E0692F0C940F059B
:100B70004F925F926F927F928F929F92AF92BF92AD
:100B8000CF92DF92EF92FF920F931F93CF93DF9359
:100B90001F92CDB7DEB7862E942E5C01E62EF72E7F
:100BA000262F660F330B281B310987FD3395072F3E
:100BB000072E000C110B091B110997FD139537FF28
:100BC00003C077247A9402C07724739417FF03C07C
:100BD00066246A9402C066246394290137FF03C027
:100BE00051944194510817FF03C0119501951109C3
:100BF00040165106A4F06201D594C794F92EA814AA
:100C000021F1692D8A2D9F2D0E94B105C01AD10AAC
:100C1000D7FE03C0C40CD51CF60CA70CF0CF68019E
:100C2000D594C794E82EB71681F0692D8E2D9B2D93
:100C300079830E94B105C418D5087981D7FE03C015
:100C4000C00ED11EE70CB60CEECF692DC7010F9078
:100C5000DF91CF911F910F91FF90EF90DF90CF9098
:100C6000BF90AF909F908F907F906F905F904F90CC
:100C70000C94B105FF920F931F93CF93DF93D82F5E
:100C8000F92E162FC72F042F792F0E94B805402F59
:100C90006D2F7C2F8D2F9F2D0E94B805402F612F27
:100CA0007C2F812F9F2D0E94B805402F612F7C2F14
:100CB0008D2F9C2F0E94B805DF91CF911F910F912E
:100CC000FF9008950E944D05E1E0F1E0118A14863D
:100CD0000895DF92EF92FF920F931F93CF93DF93CC
:100CE000D82E7B01162F0F2D8091030190910401C6
:100CF000C0E00197A1F50F2D0C1BE0910901F091C7
:100D00000A018181C817C0F4D0E080910901909157
:100D10000A01FC012281D21768F42D2F4C2F6D2D72
:100D20000E946E05682F8D2F8E0D902F0E94B105A9
:100D3000DF5FEBCFCF5FDFCFC0E0E0910901F09143
:100D40000A018281C81740F460E08C2F8E0D902F2D
:100D50000E94B105CF5FF1CF015031C0CF5F1C2F92
:100D60001E0DE0910901F0910A018181C817B0F4CC
:100D7000D0E08091090190910A01FC012281D217F3
:100D800068F72D2F4C2F6D2D0E946E05682F812F37
:100D90009D2F9F0D0E94B105DF5FEBCFC0E0E0917A
:100DA0000901F0910A018281C81740F460E0812FA7
:100DB0009C2F9F0D0E94B105CF5FF1CF1F5F812F48
:100DC000902FDF91CF911F910F91FF90EF90DF90C7
:100DD00008951F93CF93DF93182FEC018C2F811B65
:100DE0009991992351F0892F0E946906BC018C2F9B
:100DF000811B653014F477FFF1CFDF91CF911F9104
:100E000008950F931F93CF93DF93EC019B011092F2
:100E10000D0140930E0110921101009109011091F2
:100E20000A010115110509F449C0F8018181609199
:100E300007017091080190E00E94A308BC01809115
:100E40000B0190910C010E94B408CB016AE070E0A4
:100E50000E94A3089093100180930F013093060124
:100E60002093050140E250E0BE0182E191E00E9442
:100E7000DC0880910101909102010197F9F4FE01D3
:100E800001900020E9F7CF010197F8019181692FC6
:100E900070E06F5F7F4F8C1B0E949A0881502091F9
:100EA0000301309104012130310511F095E001C0BA
:100EB00097E0981718F48EEF80931101DF91CF918E
:100EC0001F910F9108952091030130910401213069
:100ED000310511F070E001C076E04FEF60E00E9454
:100EE0000107089590E09093080180930701089509
:100EF00090930201809301010895909304018093DF
:100F00000301089590930A01809309010895809147
:100F10006601909167010196909367018093660145
:100F200020910F01309110018217930708F469C0D6
:100F30001092670110926601E0910D01F0E0EF5F01
:100F4000FE4F818981110AC080910E01823008F420
:100F500058C0815080930E0110920D0180910D01B7
:100F600090E0FC01EF5FFE4F2189222309F449C084
:100F7000409101015091020120911101411551054B
:100F800021F04130510599F024C0211122C0609117
:100F90000501709106018E5E9E4F0E94E90690E069
:100FA000019790910D01890F80930D0112C06091FE
:100FB00005017091060140910301509104014130F7
:100FC000510511F4720F01C0621B8E5E9E4F0E948C
:100FD000E906809111018F5F80931101082E000CAA
:100FE000990BE0910901F0910A01218130E0281765
:100FF00039073CF41092110180910D018F5F8093AD
:101000000D010C943905CF93DF93C1E0D1E09B87AC
:101010008A870E94550584E190E09F838E83DF914B
:10102000CF910C946206182F092FF62E0E94880487
:101030000E949204C12FD02F8E819F810E9497041D
:10104000E881F9818A819B8109958E819F812C811C
:101050003D81280F391F3F832E830E949204E12F88
:10106000F02FAFEFBFEF40E04F1531F3268137810E
:10107000BC01621B730B9B012F3F7FE7370710F406
:10108000EF01DACF3195219531092A173B0710F48A
:10109000D901EF014F5F3896E7CF0F931F93CF939E
:1010A000DF93CDB7DEB760970FB6F894DEBF0FBE03
:1010B000CDBF8E010F5F1F4F80E1F80111928A951D
:1010C000E9F789E590E09A8389838DE790E09E8334
:1010D0008D8381EC90E09A87898788E391E09E87F1
:1010E0008D870E94D2010E94C4028AEF90E00E9484
:1010F0000308E8E6F1E083E080838183AEEDB1E0B0
:10110000B583A4831796FC93EE931697CF010E94A4
:10111000860162E0C8010E94130880E090E06096BA
:101120000FB6F894DEBF0FBECDBFDF91CF911F91F8
:101130000F910895002480FD060E660F11F086952C
:10114000D1F7802D08950024552704C0080E591F9B
:10115000880F991F009729F076956795B8F3710568
:10116000B9F7802D952F0895AA1BBB1B51E107C02D
:10117000AA1FBB1FA617B70710F0A61BB70B881F27
:10118000991F5A95A9F780959095BC01CD010895B6
:1011900097FB072E16F4009407D077FD09D00E9424
:1011A000B40807FC05D03EF4909581959F4F0895B3
:1011B000709561957F4F0895FB01DC0141505040CF
:1011C00048F001900D920020C9F701C01D924150D6
:0A11D0005040E0F70895F894FFCFB7
:1011DA0039000000000000140000000000000000B8
:1011EA0000000000000000000000000000000000F5
:1011FA0000000000000000000000000000000000E5
:10120A000000038003400320008003100340008095
:10121A00031003800320004000200010000800048F
:04122A0000020001BD
:00000001FF
