:100000000C943A000C9457000C9457000C94570031
:100010000C9457000C9457000C9457000C94570004
:100020000C9457000C9457000C9457000C945700F4
:100030000C9457000C9457000C9457000C945700E4
:100040000C9457000C9457000C9457000C945700D4
:100050000C9457000C9457000C9457000C945700C4
:100060000C9457000C9457000C9457000C945700B4
:100070000C94570011241FBECFEFD4E0DEBFCDBFDC
:1000800012E0A0E0B1E0EEEBF7E102C005900D92C6
:10009000A431B107D9F723E0A4E1B2E001C01D9279
:1000A000AA34B207E1F70E942F0B0C94DD0B0C94DD
:1000B00000000C942509CF93DF9300D0CDB7DEB7B5
:1000C00089839A830E9400082091000189819A8186
:1000D000211104C020911502222319F00E94010968
:1000E00005C041E060E070E00E949F080F900F9013
:1000F000DF91CF910C942509BF92CF92DF92EF92BE
:10010000FF920F931F93CF93DF9300D000D000D0C6
:10011000CDB7DEB78C010E940008809115028111D5
:1001200077C080910001811173C061E0D8018D9189
:100130009C910E944F07D8011296ED91FC91139764
:1001400061E0808191810E944F0786E0B82E011501
:10015000110529F17801B6E0EB0EF11C6801E4E22B
:10016000CE0ED11CF701DE0111968B2D01900D9260
:100170008A95E1F7F7018081882329F061E08A817F
:100180009B810E944F07F6E0EF0EF11CEC14FD047A
:1001900049F7D80112960D911C911397D8CF209151
:1001A00014022223A9F130E021503109C90165E090
:1001B00070E00E94950B805B9D4F892B49F5C9012A
:1001C00065E070E00E94950BFC01E25BFD4F95E05D
:1001D000DE01119601900D929A95E1F761E0898117
:1001E0009A810E944F070E94250984E690E0269696
:1001F0000FB6F894DEBF0FBECDBFDF91CF911F9138
:100200000F91FF90EF90DF90CF90BF900C9441063C
:1002100026960FB6F894DEBF0FBECDBFDF91CF910B
:100220001F910F91FF90EF90DF90CF90BF900895B6
:10023000FC0182819381892B41F081E0809315023A
:1002400066ED71E080EE91E004C060EE71E086ED55
:1002500091E00C945B0081E0809315026BEE71E0FD
:10026000CB010C945B000E946B0A882309F44CC0FC
:100270000E946D0A823551F12CF48434D1F08C3413
:1002800089F10895853529F08635D1F18435B1F1AC
:10029000089561E084EE92E00E948A05811105C014
:1002A0006AE084EE92E00E9454058AE292E00C94A7
:1002B0007C0062E084EE92E00E948A058111F5CF15
:1002C0006AE084EE92E00E946105EFCF64E084EE84
:1002D00092E00E948A058111E8CF84EE92E00E94AC
:1002E0008305E3CF63E084EE92E00E948A058111EA
:1002F000DCCF84EE92E00E947C05D7CF0C942B01DA
:1003000084EE92E00C9418010895CF93C82F362FF5
:10031000DA01209114022E3188F4822F90E065E0FA
:1003200070E00E94950BFC01E25BFD4F2F5F209374
:100330001402C0833183B483A38302C0E0E0F0E001
:10034000CF01CF9108958F929F92BF92CF92DF926B
:10035000EF92FF920F931F93CF93DF931F92CDB72E
:10036000DEB7DC0184EE92E090932D0280932C02A4
:100370008AE292E09093E9028093E80282E08C9313
:100380001296ED91FC911397309711F480E001C023
:1003900086E011968C9382E0808382819381892B01
:1003A00011F480E001C086E081830481158125E09D
:1003B000D12C82E0B82E01151105F1F14801F9E0C8
:1003C0008F0E911CE12CF12CC12C84E08D1510F4C2
:1003D0002150D12CF80182819381892B09F421E0ED
:1003E000F4013297D082319620833297B082F401A3
:1003F00012830183C082FFEFEF1AFF0AC70166E094
:1004000070E00E94950BF801E80FF91F40815181BF
:10041000628173818481958129830E94D604D3945B
:10042000C39486E0880E911C2981E5E0CE12CDCFE1
:10043000F80102811381BFCF8AE292E00E947C0022
:100440000F90DF91CF911F910F91FF90EF90DF9070
:10045000CF90BF909F908F900C942509BF92CF9220
:10046000DF92EF92FF920F931F93CF93DF9300D011
:1004700000D000D0CDB7DEB70E943F0480910001CC
:100480008823E1F084E00E940D048823B9F01092E3
:100490000001109215028AE292E026960FB6F894B7
:1004A000DEBF0FBECDBFDF91CF911F910F91FF90A7
:1004B000EF90DF90CF90BF900C947C00809115025C
:1004C000882311F184E00E940D048823E9F08AE278
:1004D00092E00E94A3011092150281E08093000136
:1004E00061E072E0CB0126960FB6F894DEBF0FBE36
:1004F000CDBFDF91CF911F910F91FF90EF90DF90D3
:10050000CF90BF900C945B0080911502811132C195
:100510008091000181112EC10E940D04882391F069
:1005200061E08AE292E00E948A05811105C061E0E3
:100530008AE292E00E9454058AE292E00E947C00E6
:1005400084E416C082E00E940D048823A1F062E0DA
:100550008AE292E00E948A05811105C06AE08AE27F
:1005600092E00E9461058AE292E00E947C0085E5AB
:100570000E94750ACBC083E00E940D04882389F095
:1005800063E08AE292E00E948A05811104C08AE257
:1005900092E00E947C058AE292E00E947C0082E563
:1005A000E7CF81E00E940D04882389F064E08AE2AD
:1005B00092E00E948A05811104C08AE292E00E94C2
:1005C00083058AE292E00E947C008CE4D1CF84E033
:1005D0000E940D04882309F499C040912C02509187
:1005E0002D024115510521F440912E0250912F0208
:1005F00060912B0280912A020E9485018C01DC010E
:100600001396ED90FC901497BB24B394F80182816B
:1006100081117CC020912C0230912D02F801818142
:100620008150232B11F0818301C08183F801618106
:1006300080810E94FE0429833A834B835C836D830F
:100640007E83C52ED12C8AE292E00E947C00D701E5
:1006500018964C91C60166E070E00E94950BF70178
:10066000E80FF91F2681D80111963C91222339F118
:10067000828593858E159F0511F550E0832F032EFB
:10068000000C990B84179507D1F421502683C601DD
:10069000019666E070E00E94950BF701E80FF91FE4
:1006A0004081518162817381848195810E94D60449
:1006B000F801B2828AE292E00E947C00A7CFD801C2
:1006C0009C91F7018081981312C0818138130FC06B
:1006D000609116026B256093160280E00E94EB0980
:1006E0008AE292E00E94180100E010E08FCF3730DC
:1006F00008F48CCFD8011296BC92609116026B253B
:100700006093160280E00E94EB0980CF8AE292E0BB
:100710000E94FE058823A1F084E50E94750A2696B2
:100720000FB6F894DEBF0FBECDBFDF91CF911F9102
:100730000F91FF90EF90DF90CF90BF900C942B0122
:1007400080912B02811116C086E50E94750A8AE20B
:1007500092E026960FB6F894DEBF0FBECDBFDF91B4
:10076000CF911F910F91FF90EF90DF90CF90BF90AE
:100770000C94180126960FB6F894DEBF0FBECDBFBD
:10078000DF91CF911F910F91FF90EF90DF90CF906D
:10079000BF900895E1E6F0E080E880831082A8959C
:1007A00084B7877F84BFE0E6F0E080818861808342
:1007B000108208956230710511F168F4613071059D
:1007C00051F5FC01FF2724A1892F8095922F9823B2
:1007D00094A395A112C06330710541F06430710596
:1007E000D1F4FC01FF2784A1892B0FC0FC01FF2756
:1007F00084A1892B84A385A19095892309C0FC013C
:10080000FF2724A1892F8095822384A385A1892B8A
:1008100085A381E0089580E00895E82FF0E0EE0FD1
:10082000FF1FE95EFD4F8081882321F0918181E0E7
:10083000892702C080E090E081700895E82FF0E001
:10084000EE0FFF1FE95EFD4F8081811102C08181A3
:1008500002C080E090E081700895E82FF0E0EE0F94
:10086000FF1FE95EFD4F80810895E82FF0E0EE0F55
:10087000FF1FE95EFD4F908181E0892708956F9207
:100880007F928F929F92AF92BF92CF92DF92EF9220
:10089000FF920F931F93CF93DF9300D0CDB7DEB7B6
:1008A00027E1622E22E0722E3FEAC32E31E0D32EE2
:1008B000812C46E0942EF30180818183F601019121
:1008C00011916F015801BB24F50184A1E12EFF2491
:1008D00025A130E02E213F2141E0232B09F440E007
:1008E00090E08E219F21892B29F0411108C023E03F
:1008F00030E00AC0411106C021E030E005C024E02C
:1009000030E002C022E030E064E070E0C8012983FA
:100910003A830E94DA0362E070E0C8010E94DA03C1
:10092000892D8A95F1F7F50183A190E0E822F9225B
:1009300081E029813A81EF2809F080E0F30180838A
:10094000B901C8010E94DA038394F2E06F0E711CB2
:1009500085E08812B0CF0F900F90DF91CF911F915B
:100960000F91FF90EF90DF90CF90BF90AF909F904E
:100970008F907F906F9008950895462F90E063E0E8
:1009800070E00E94950B9C01842F90E065E070E080
:100990000E94950B820F931F23E0880F991F2A95C1
:1009A000E1F76BE070E00E94BA0B0895CF93DF93FC
:1009B00000D000D000D0CDB7DEB749835A836B8317
:1009C0007C838D839E83852F0E94BD0490E066E02A
:1009D00070E00E94950BDC01A85FBC4F96E0FE0121
:1009E000319601900D929A95E1F726960FB6F894FC
:1009F000DEBF0FBECDBFDF91CF9108950F931F9340
:100A0000CF93DF93CDB7DEB72C970FB6F894DEBF48
:100A10000FBECDBF082F162F0E94BD0490E066E0E8
:100A200070E00E94950B885F9C4F26E0FC01DE0180
:100A3000179601900D922A95E1F7FC0131812281F0
:100A4000432F032E000C550B802F90E048175907B9
:100A5000A9F4612F70E0822F022E000C990B8617EB
:100A6000970761F43887298786E0FE013796DE0113
:100A7000119601900D928A95E1F703C019821A82AE
:100A80001B8229813A814B815C816D817E8180E06E
:100A900090E02C960FB6F894DEBF0FBECDBFDF916D
:100AA000CF911F910F910895FC019181292F092E5B
:100AB000000C330B261B310937FD02C0961B9183B6
:100AC0000895FC0191816A3058F4262F30E0290FF7
:100AD000311D97FD3A95273031056CF4960F0AC009
:100AE00022813381232B19F096302CF402C09530EB
:100AF00014F49F5F91830895FC019081191614F4FA
:100B0000915090830895FC019081943014F49F5F7C
:100B100090830895DF92EF92FF920F931F93CF93EC
:100B2000DF9300D000D000D0CDB7DEB7FC0100814C
:100B30009181623059F020F4613059F4915009C02C
:100B4000633031F0643029F40F5F03C09F5F01C050
:100B50000150892F8B7FD82E81E0D8123FC0162FED
:100B60007F01692F802F0E94FE0429833A834B83E3
:100B70005C836D837E83832F330F990B019666E030
:100B800070E00E94950BED81FE81E80FF91F8481D2
:100B900095812081222311F18E159F0501F51130D9
:100BA00029F462E0C7010E94540519C0123029F4EB
:100BB00062E0C7010E94610512C06DEF610F6230F3
:100BC00070F4802F90E0019666E070E00E94950B33
:100BD000F701E80FF91F8081811101C0D12C8D2D03
:100BE00026960FB6F894DEBF0FBECDBFDF91CF9132
:100BF0001F910F91FF90EF90DF900895FC014081CD
:100C00002181A281B38150E0109759F08C91082E78
:100C1000000C990B48175907B9F430E011964C9124
:100C20000CC00480F581E02D8081082E000C990B0A
:100C30004817590749F430E04181042E000C550B48
:100C400081E02417350709F080E0089510928000B4
:100C500084E08093810010928500109284000895B2
:100C600080918400909185000895AC01809184006A
:100C7000909185009C01241B350B283E3340B0F732
:100C800008952091840030918500820F931F0C9469
:100C900035069C01FC01FF2784A1832B84A395A129
:100CA000892F832B85A381E00895CF93DF93C3EC35
:100CB000D1E0899199910E94490681E0C13DD80710
:100CC000C1F783E090E40E94490680E090E80E942A
:100CD000490683E090E10E94490683E090E80E9483
:100CE000490683E090E2DF91CF910C944906E091B0
:100CF0002102F0E0EE0FFF1FE754FE4F208131810B
:100D0000F901FF2795A1932B95A3E3ECF1E097E080
:100D100020813181D901BB2795962C91959780FF31
:100D200003C03095232301C0232B95962C938695E1
:100D3000915032969111ECCFE62FF0E0EE0FFF1FAD
:100D4000E754FE4F80819181FC01FF2785A190959A
:100D5000892385A3609321020895853098F4673034
:100D600088F421E030E001C0220F6A95EAF7E82F0D
:100D7000F0E0ED5DFD4F922F909580818923411128
:100D8000822B80830895853080F4673070F4E82FDB
:100D9000F0E0ED5DFD4F81E090E001C0880F6A95C5
:100DA000EAF79081982381E009F480E0089560914A
:100DB0002202E62FF0E0ED5DFD4F80810E94770674
:100DC000809122028F5F853018F48093220208956B
:100DD000109222020895E3E2F2E010821182128260
:100DE0001382148208950E9455060C94EB06009716
:100DF00089F0FC012381621B67FD09C0062E000CEF
:100E0000770B248130E081E0621773070CF080E0FB
:100E10008170089580E00895CF93DF93FC01A62FA1
:100E2000822F309771F16181461758F59281291709
:100E300040F59381A91BA7FD24C00A2E000CBB0B13
:100E4000C481D0E0AC17BD07E4F40E948C0B480FBE
:100E5000658170E0CD010E94950B0696242F2695A2
:100E600026952695E80FF91FE20FF11D9081892F35
:100E700090E0477002C0959587954A95E2F781709A
:100E800001C080E0DF91CF91089541E0611101C080
:100E900040E0692F0C94AD06692F0C94C30641E025
:100EA000611101C040E0692F0C94AD064F925F9232
:100EB0006F927F928F929F92AF92BF92CF92DF926A
:100EC000EF92FF920F931F93CF93DF931F92CDB7B3
:100ED000DEB7862E942E5C01E62EF72E262F660FA7
:100EE000330B281B310987FD3395072F072E000C84
:100EF000110B091B110997FD139537FF03C07724C8
:100F00007A9402C07724739417FF03C066246A940E
:100F100002C066246394290137FF03C051944194B1
:100F2000510817FF03C0119501951109401651068C
:100F3000A4F06201D594C794F92EA81421F1692D6B
:100F40008A2D9F2D0E944F07C01AD10AD7FE03C0D9
:100F5000C40CD51CF60CA70CF0CF6801D594C7942F
:100F6000E82EB71681F0692D8E2D9B2D79830E9476
:100F70004F07C418D5087981D7FE03C0C00ED11E13
:100F8000E70CB60CEECF692DC7010F90DF91CF9122
:100F90001F910F91FF90EF90DF90CF90BF90AF9097
:100FA0009F908F907F906F905F904F900C944F0721
:100FB000FF920F931F93CF93DF93D82FF92E162F05
:100FC000C72F042F792F0E945607402F6D2F7C2F9B
:100FD0008D2F9F2D0E945607402F612F7C2F812F30
:100FE0009F2D0E945607402F612F7C2F8D2F9C2F05
:100FF0000E945607DF91CF911F910F91FF900895A6
:101000000E94EB06E1E0F1E0118A14860895DF9278
:10101000EF92FF920F931F93CF93DF93D82E7B0114
:10102000162F0F2D8091030190910401C0E00197CC
:10103000A1F50F2D0C1BE0910901F0910A018181AE
:10104000C817C0F4D0E08091090190910A01FC0119
:101050002281D21768F42D2F4C2F6D2D0E940C0782
:10106000682F8D2F8E0D902F0E944F07DF5FEBCFE3
:10107000CF5FDFCFC0E0E0910901F0910A018281EA
:10108000C81740F460E08C2F8E0D902F0E944F0700
:10109000CF5FF1CF015031C0CF5F1C2F1E0DE0910B
:1010A0000901F0910A018181C817B0F4D0E0809164
:1010B000090190910A01FC012281D21768F72D2FB6
:1010C0004C2F6D2D0E940C07682F812F9D2F9F0D97
:1010D0000E944F07DF5FEBCFC0E0E0910901F09184
:1010E0000A018281C81740F460E0812F9C2F9F0D78
:1010F0000E944F07CF5FF1CF1F5F812F902FDF91AD
:10110000CF911F910F91FF90EF90DF9008951F9363
:10111000CF93DF93182FEC018C2F811B999199238A
:1011200051F0892F0E940708BC018C2F811B65306C
:1011300014F477FFF1CFDF91CF911F9108950F93B2
:101140001F93CF93DF93EC019B0110920D0140930D
:101150000E01109211010091090110910A0101156F
:10116000110509F449C0F80181816091070170916E
:10117000080190E00E94950BBC0180910B019091B9
:101180000C010E94A60BCB016AE070E00E94950B57
:101190009093100180930F01309306012093050175
:1011A00040E250E0BE0182E191E00E94CE0B8091CE
:1011B0000101909102010197F9F4FE0101900020D4
:1011C000E9F7CF010197F8019181692F70E06F5F16
:1011D0007F4F8C1B0E948C0B81502091030130911A
:1011E00004012130310511F095E001C097E0981716
:1011F00018F48EEF80931101DF91CF911F910F9121
:10120000089520910301309104012130310511F03E
:1012100070E001C076E04FEF60E00E949F08089503
:1012200090E0909308018093070108959093020144
:101230008093010108959093040180930301089520
:1012400090930A018093090108958091280290915A
:1012500029020196909329028093280220910F0180
:10126000309110018217930708F469C01092290287
:1012700010922802E0910D01F0E0EF5FFE4F8189AE
:1012800081110AC080910E01823008F458C081504B
:1012900080930E0110920D0180910D0190E0FC01F0
:1012A000EF5FFE4F2189222309F449C040910101DB
:1012B00050910201209111014115510521F0413059
:1012C000510599F024C0211122C06091050170914F
:1012D00006018E5E9E4F0E94870890E001979091D4
:1012E0000D01890F80930D0112C06091050170916D
:1012F000060140910301509104014130510511F460
:10130000720F01C0621B8E5E9E4F0E948708809103
:1013100011018F5F80931101082E000C990BE09151
:101320000901F0910A01218130E0281739073CF4C6
:101330001092110180910D018F5F80930D010C942B
:10134000D706CF93DF93C1E0D1E09B878A870E94C5
:10135000F30684E190E09F838E83DF91CF910C941C
:101360000008182F092FF62E0E9426060E9430062C
:10137000C12FD02F8E819F810E943506E881F9818F
:101380008A819B8109958E819F812C813D81280FC7
:10139000391F3F832E830E943006E12FF02FAFEFDD
:1013A000BFEF40E04F1531F326813781BC01621B4E
:1013B000730B9B012F3F7FE7370710F4EF01DACF64
:1013C0003195219531092A173B0710F4D901EF0116
:1013D0004F5F3896E7CF811105C0662311F0429A1E
:1013E0000895429808953A9A429A0895CF93DF93C8
:1013F0001F92CDB7DEB79E012F5F3F4F45E061EDF5
:1014000071E00E94B10A91E0980F909332019981A6
:10141000915097BD18BC95B5977039F095B520914E
:1014200032012770987F922B95BD298130E0E82FFB
:10143000F0E0EF52FE4FC901008002C0880F991FF3
:101440000A94E2F70F90DF91CF91089585B3897FD9
:1014500085BB85B5909132019770887F892B85BDBA
:10146000089585B5887F85BD089585B382FB88275B
:1014700080F90895009719F0019741F0089584B517
:101480006295660F660F607C8F7305C084B56370CC
:101490006295607F8F7C682B64BD0895009741F052
:1014A000019759F484B58E7F84BD84B5826002C0F3
:1014B00084B58C7F84BD81E0089580E0089514BCDC
:1014C00015BC16BC18BC84B58E7F84BD84B5826003
:1014D00084BD81E008950C94FB0A0C941C0B0C94C1
:1014E000010B0C94070B0C940D0B0E940D0B0E942A
:1014F000070B8823E1F38CE291E00197F1F70E945A
:10150000FB0A81110C946D0A08950C94230BCF9360
:10151000DF9300D01F92CDB7DEB780ED90E09A83C5
:10152000898388E08B83509A589A0E945F0A8FE6DD
:1015300090E00E94F60981E090E00E944E0A61E08E
:1015400070E081E090E00E943A0A0E94260ACE01F3
:1015500001960E94E30A0F900F900F90DF91CF91B8
:101560000895CF93DF93DC01562FFB0160E070E01C
:10157000C1E0D0E08E2F851B8417B8F49191BE0195
:10158000092E02C0660F771F0A94E2F76F5F7F4F44
:10159000769567956A0F7B1F02C0769567959A9539
:1015A000E2F76F3F710509F028F7F9016083DF91D9
:1015B000CF9108959C01215031093093CD00815085
:1015C0008093CC000895CF93DF93EC0188819981BB
:1015D0000E94DA0A8A819BEF980F943008F088E025
:1015E00098E19093C9008550880F8093CA0081E0EC
:1015F000DF91CF9108958091C800881F8827881FA8
:1016000008958091C80085FB882780F9089580910E
:10161000C80086FB882780F90895CF93C82F0E94C1
:10162000010B8823E1F39091C80090649093C80067
:10163000C093CE00CF9108958091C80087FFFCCF62
:101640008091CE000895CF93DF93EC018991882398
:1016500019F00E940D0BFACFDF91CF9108950F93EF
:101660001F93CF93DF93CDB7DEB768970FB6F8948B
:10167000DEBF0FBECDBF8E010F5F1F4F88E1F801A7
:1016800011928A95E9F789E590E09A83898388E643
:1016900090E09E838D838EE292E09A87898788E32B
:1016A00091E09E878D8723E331E03A8B298B9E8BD7
:1016B0008D8B0E94CA030E94BC048CE291E00E94C0
:1016C000A10983E391E00E9420098AE00E941009A9
:1016D00081E090E00E94160981E090E00E941B09E1
:1016E0008AE292E00E94A3010E94870A61E072E010
:1016F000CB010E945B0063E0C8010E94B10980E059
:1017000090E068960FB6F894DEBF0FBECDBFDF91B4
:10171000CF911F910F910895002480FD060E660F52
:1017200011F08695D1F7802D08950024552704C027
:10173000080E591F880F991F009729F07695679515
:10174000B8F37105B9F7802D952F0895AA1BBB1B1F
:1017500051E107C0AA1FBB1FA617B70710F0A61BB1
:10176000B70B881F991F5A95A9F780959095BC01D2
:10177000CD01089597FB072E16F4009407D077FD4E
:1017800009D00E94A60B07FC05D03EF490958195E8
:101790009F4F0895709561957F4F0895FB01DC017F
:1017A0004150504048F001900D920020C9F701C00F
:0E17B0001D9241505040E0F70895F894FFCF8D
:1017BE000100000000000014000000000000000006
:1017CE00000000000000000000000000000000000B
:1017DE0000000000000000000000000000000000FB
:1017EE00000001010305203B0200009220EB737DF7
:1017FE005FDE3DA552EA7A14004A222229BA2ED083
:10180E00050014C0010020A4126A2B9A74A372A3BF
:10181E0038ED498F38CE2AA712AA2AAE49100410E5
:10182E00145444380E11152A250000EA5BEB3A4F8A
:10183E00726B3BCF73CF134F7AED5B9774247B5D46
:10184E00564972FD5B6F5B6F7BEF136F7FEF57CE69
:10185E003897246D7B6D2BED5FAD5AAD24A77203C7
:10186E008003400320008003100340008003100318
:10187E008003200040002000100008000400020039
:10188E0001000306080A444546454154203A280003
:10189E00564943544F5259203A290043485249530E
:1018AE00544D41532054525543452C203139313437
:1018BE0000424154544C45204F46204C4544203163
:0418CE003931340078
:00000001FF
