:100000000C943A000C9457000C9457000C94570031
:100010000C9457000C9457000C9457000C94570004
:100020000C9457000C9457000C9457000C945700F4
:100030000C9457000C9457000C9457000C945700E4
:100040000C9457000C9457000C9457000C945700D4
:100050000C9457000C9457000C9457000C945700C4
:100060000C9457000C9457000C9457000C945700B4
:100070000C94570011241FBECFEFD4E0DEBFCDBFDC
:1000800013E0A0E0B1E0E8E0F3E102C005900D92DA
:10009000A036B107D9F724E0A0E6B3E001C01D9275
:1000A000AF34B207E1F70E94E5080C9482090C9482
:1000B00000000C9414080F931F93CF93DF9300D08C
:1000C000CDB7DEB78B0189839A830E94EF068981C1
:1000D0009A818017910719F40E94F00705C041E04A
:1000E00060E070E00E948E070F900F90DF91CF913B
:1000F0001F910F910C941408BF92CF92DF92EF9250
:10010000FF920F931F93CF93DF9300D000D01F92E5
:10011000CDB7DEB70E94EF068091600381115EC00B
:1001200061E080917603909177030E943E0661E042
:1001300080910D0490910E040E943E0606E713E0A4
:1001400095E0B92E0115110519F17801F6E0EF0ED1
:10015000F11C68018FE1C80ED11CF701DE01119678
:100160008B2D01900D928A95E1F7F701808188230C
:1001700029F061E08A819B810E943E06F5E0EF0E46
:10018000F11CEC14FD0449F7F80102811381DACF68
:10019000E0916203EE2311F1F0E0EE0FFF1FEE0F8E
:1001A000FF1FEF56FC4F3097C9F061E080819181CD
:1001B0000E943E060E94140884E690E00F900F9083
:1001C0000F900F900F90DF91CF911F910F91FF90A3
:1001D000EF90DF90CF90BF900C9430050F900F9070
:1001E0000F900F900F90DF91CF911F910F91FF9083
:1001F000EF90DF90CF90BF900895FC0182819381B2
:10020000892B49F081E08093600364E373E08EE31F
:1002100093E00C945B00089581E08093600369E4AF
:1002200073E0CB010C945B00909162039E3180F4EB
:10023000E92FF0E0EE0FFF1FEE0FFF1FEB56FC4F14
:100240009F5F90936203808361835383428302C0E4
:10025000E0E0F0E0CF010895DF92EF92FF920F937C
:100260001F93CF93DF9300D000D000D0CDB7DEB77F
:10027000809160038111C9C00E94E70280E00E9462
:10028000B502882379F061E086E793E00E943904A3
:10029000811105C06AE086E793E00E94FD030E9499
:1002A0007C009EC082E00E94B502882369F062E073
:1002B00086E793E00E9439048111F1CF6AE086E776
:1002C00093E00E941004EBCF83E00E94B5028823E4
:1002D00061F063E086E793E00E9439048111DFCF8B
:1002E00086E793E00E942B04DACF81E00E94B502FA
:1002F000882361F064E086E793E00E94390481116D
:10030000CECF86E793E00E943204C9CF84E00E94FA
:10031000B502882309F464C04091780350917903B1
:10032000609177034115510511F0615005C040916E
:100330007A0350917B036F5F809176030E941401D2
:100340008C01FC01E280F380DD24D39401151105BA
:1003500009F446C02091780330917903F801818136
:100360008150232B09F4F8018183F8016181808198
:100370000E94A30329833A834B835C836D832E837E
:100380000E947C002E81222329F08C819D818E1574
:100390009F0519F1F8012081F7019081F801818111
:1003A000291311C0F701918189130DC06091610378
:1003B0006D256093610380E00E94DA0886E793E090
:1003C0000E94FD000AC0873008F2609161036D252C
:1003D0006093610380E00E94DA0800E010E0B6CF8D
:1003E00086E793E00E94ED04882379F026960FB605
:1003F000F894DEBF0FBECDBFDF91CF911F910F915B
:10040000FF90EF90DF900C940C0126960FB6F894B5
:10041000DEBF0FBECDBFDF91CF911F910F91FF9037
:10042000EF90DF900895BF92CF92DF92EF92FF920C
:100430000F931F93CF93DF93FC018DE094E0909393
:1004400079038093780386E793E090931204809376
:10045000110482E08083A281B381109711F48AE0B5
:1004600001C086E081831496CD90DC901597E6015B
:100470002896E12CF12C05E010E082E0B82EFE0178
:100480003197108308833197B082DA82C982C7011D
:1004900065E070E00E943A098C0D9D1DFC013696C6
:1004A000DC0116964C9151816281738184810E9496
:1004B0007D03B4E0EB16F10451F01F5F153010F02E
:1004C000015010E08FEFE81AF80A2596D8CFDF9197
:1004D000CF911F910F91FF90EF90DF90CF90BF9041
:1004E0000C947C00E1E6F0E080E880831082A8951F
:1004F00084B7877F84BFE0E6F0E0808188618083F5
:10050000108208956230710511F168F4613071054F
:1005100051F5FC01FF2724A1892F8095922F982364
:1005200094A395A112C06330710541F06430710548
:10053000D1F4FC01FF2784A1892B0FC0FC01FF2708
:1005400084A1892B84A385A19095892309C0FC01EE
:10055000FF2724A1892F8095822384A385A1892B3D
:1005600085A381E0089580E00895E82FF0E0EE0F84
:10057000FF1FED59FC4F8081882321F0918181E09C
:10058000892702C080E090E081700895E82FF0E0B4
:10059000EE0FFF1FED59FC4F8081811102C0818158
:1005A00002C080E090E081700895E82FF0E0EE0F47
:1005B000FF1FED59FC4F80810895E82FF0E0EE0F0A
:1005C000FF1FED59FC4F908181E0892708956F92BC
:1005D0007F928F929F92AF92BF92CF92DF92EF92D3
:1005E000FF920F931F93CF93DF9300D0CDB7DEB769
:1005F00023E6622E23E0722E32E1C32E33E0D32EA7
:10060000812C46E0942EF30180818183F6010191D3
:1006100011916F015801BB24F50184A1E12EFF2443
:1006200025A130E02E213F2141E0232B09F440E0B9
:1006300090E08E219F21892B29F0411108C023E0F1
:1006400030E00AC0411106C021E030E005C024E0DE
:1006500030E002C022E030E064E070E0C8012983AD
:100660003A830E94820262E070E0C8010E94820226
:10067000892D8A95F1F7F50183A190E0E822F9220E
:1006800081E029813A81EF2809F080E0F30180833D
:10069000B901C8010E9482028394F2E06F0E711CBE
:1006A00085E08812B0CF0F900F90DF91CF911F910E
:1006B0000F91FF90EF90DF90CF90BF90AF909F9001
:1006C0008F907F906F9008950895262F90E063E0BB
:1006D00070E00E943A09622F70E0660F771F660F84
:1006E000771F860F971F33E0880F991F3A95E1F720
:1006F00067E070E00E945F090895CF93DF9300D018
:1007000000D01F92CDB7DEB749835A836B837C83B9
:100710008D83852F0E94650390E065E070E00E9464
:100720003A09DC01A45DBB4F95E0FE0131960190D2
:100730000D929A95E1F70F900F900F900F900F90F8
:10074000DF91CF9108950F931F93CF93DF93CDB790
:10075000DEB72A970FB6F894DEBF0FBECDBF082FC5
:10076000162F0E94650390E065E070E00E943A0950
:10077000845D9B4F25E0FC01DE01169601900D92F1
:100780002A95E1F7FC01408131812281632F032EFC
:10079000000C770B802F90E068177907C1F4612F68
:1007A00070E0822F022E000C990B8617970779F4C0
:1007B000442369F04E833F83288785E0FE01369607
:1007C000DE01119601900D928A95E1F703C019821E
:1007D0001A821B8229813A814B815C816D8170E094
:1007E00080E090E02A960FB6F894DEBF0FBECDBF32
:1007F000DF91CF911F910F910895FC0191816A3093
:1008000050F4292F092E000C330B261B310937FD1C
:1008100006C0961B03C0191614F4915091830895D5
:10082000FC0191816A3058F4262F30E0290F311DE8
:1008300097FD3A95273031056CF4960F0AC0228156
:100840003381232B19F096302CF402C0953014F428
:100850009F5F91830895FC019081191614F49150C3
:1008600090830895FC019081943014F49F5F9083ED
:100870000895CF92DF92EF92FF920F931F93CF9341
:10088000DF9300D000D000D0CDB7DEB78C01E62ECC
:10089000FC018081F180F1E06F1302C0FA940EC078
:1008A00092E0691302C0F39409C0E3E06E1302C042
:1008B000815004C0F4E06F1301C08F5F6F2D0E9460
:1008C000A30329833A834B835C836D83CC80DD80D3
:1008D000222309F471C0C016D10609F06BC081E073
:1008E000E81217C06FEF640F832F0E94A3035C838D
:1008F0006D838C819D81222331F08017910719F43B
:1009000063E0C80102C062E0C6010E94FD0341E04D
:1009100054C092E0E9120BC0F8018181833011F4D8
:1009200063E001C062E0C8010E941004F0CFF3E070
:10093000EF121EC0232F330F330B21503109C90191
:1009400065E070E00E943A09800F911FFC0146812A
:10095000411132C08085082E000C990B6F2D70E07C
:100960008617970751F5C8014E830E942B0420C0BB
:10097000F4E0EF1221C0232F330F330B2F5F3F4FD3
:10098000C90165E070E00E943A09800F911FFC01E7
:100990004681411111C08085082E000C990B6F2DE6
:1009A00070E08617970749F4C8014E830E9432040D
:1009B0004E8103C042E001C040E0842F26960FB66E
:1009C000F894DEBF0FBECDBFDF91CF911F910F9185
:1009D000FF90EF90DF90CF900895FC01408121813E
:1009E000A281B38150E0109759F08C91082E000C31
:1009F000990B48175907B9F430E011964C910CC087
:100A00000480F581E02D8081082E000C990B481799
:100A1000590749F430E04181042E000C550B81E068
:100A20002417350709F080E008951092800084E0D3
:100A30008093810010928500109284000895809127
:100A40008400909185000895AC018091840090917C
:100A500085009C01241B350B283E3340B0F70895D8
:100A60002091840030918500820F931F0C942405FF
:100A70009C01FC01FF2784A1832B84A395A1892FCE
:100A8000832B85A381E00895CF93DF93C6E2D3E063
:100A9000899199910E94380583E0C433D807C1F742
:100AA00083E090E40E94380580E090E80E943805D9
:100AB00083E090E10E94380583E090E80E943805C9
:100AC00083E090E2DF91CF910C943805E0916D03C3
:100AD000F0E0EE0FFF1FE45EFC4F20813181F90151
:100AE000FF2795A1932B95A3E6E2F3E097E0208101
:100AF0003181D901BB2795962C91959780FF03C032
:100B00003095232301C0232B95962C9386959150E5
:100B100032969111ECCFE62FF0E0EE0FFF1FE45E6E
:100B2000FC4F80819181FC01FF2785A1909589234D
:100B300085A360936D030895853098F4673088F439
:100B400021E030E001C0220F6A95EAF7E82FF0E0DB
:100B5000E159FC4F922F9095808189234111822B7E
:100B600080830895853080F4673070F4E82FF0E0DA
:100B7000E159FC4F81E090E001C0880F6A95EAF7E7
:100B80009081982381E009F480E0089560916E03DC
:100B9000E62FF0E0E159FC4F80810E9466058091CC
:100BA0006E038F5F853018F480936E030895109262
:100BB0006E030895EFE6F3E0108211821282138231
:100BC000148208950E9444050C94DA05009789F078
:100BD000FC012381621B67FD09C0062E000C770B08
:100BE000248130E081E0621773070CF080E08170AF
:100BF000089580E00895CF93DF93FC01A62F822F04
:100C0000309771F16181461758F59281291740F5A7
:100C10009381A91BA7FD24C00A2E000CBB0BC48125
:100C2000D0E0AC17BD07E4F40E943109480F65819C
:100C300070E0CD010E943A090696242F269526954C
:100C40002695E80FF91FE20FF11D9081892F90E0A2
:100C5000477002C0959587954A95E2F7817001C06B
:100C600080E0DF91CF91089541E0611101C040E043
:100C7000692F0C949C05692F0C94B20541E0611119
:100C800001C040E0692F0C949C054F925F926F92D7
:100C90007F928F929F92AF92BF92CF92DF92EF920C
:100CA000FF920F931F93CF93DF931F92CDB7DEB7C1
:100CB000862E942E5C01E62EF72E262F660F330B20
:100CC000281B310987FD3395072F072E000C110BC8
:100CD000091B110997FD139537FF03C077247A94F8
:100CE00002C07724739417FF03C066246A9402C07D
:100CF00066246394290137FF03C05194419451083D
:100D000017FF03C011950195110940165106A4F073
:100D10006201D594C794F92EA81421F1692D8A2D6A
:100D20009F2D0E943E06C01AD10AD7FE03C0C40CF4
:100D3000D51CF60CA70CF0CF6801D594C794E82E0B
:100D4000B71681F0692D8E2D9B2D79830E943E066A
:100D5000C418D5087981D7FE03C0C00ED11EE70C98
:100D6000B60CEECF692DC7010F90DF91CF911F9187
:100D70000F91FF90EF90DF90CF90BF90AF909F903A
:100D80008F907F906F905F904F900C943E06FF92F3
:100D90000F931F93CF93DF93D82FF92E162FC72FC2
:100DA000042F792F0E944506402F6D2F7C2F8D2F09
:100DB0009F2D0E944506402F612F7C2F812F9F2D54
:100DC0000E944506402F612F7C2F8D2F9C2F0E9463
:100DD0004506DF91CF911F910F91FF9008950E94DA
:100DE000DA05E0E0F1E0118A14860895DF92EF92CF
:100DF000FF920F931F93CF93DF93D82E7B01162F73
:100E00000F2D8091020190910301C0E00197A1F59F
:100E10000F2D0C1BE0910801F09109018181C81789
:100E2000C0F4D0E08091080190910901FC01228179
:100E3000D21768F42D2F4C2F6D2D0E94FB05682FC3
:100E40008D2F8E0D902F0E943E06DF5FEBCFCF5F80
:100E5000DFCFC0E0E0910801F09109018281C8175D
:100E600040F460E08C2F8E0D902F0E943E06CF5FE5
:100E7000F1CF015031C0CF5F1C2F1E0DE091080152
:100E8000F09109018181C817B0F4D0E08091080188
:100E900090910901FC012281D21768F72D2F4C2F68
:100EA0006D2D0E94FB05682F812F9D2F9F0D0E94A5
:100EB0003E06DF5FEBCFC0E0E0910801F091090151
:100EC0008281C81740F460E0812F9C2F9F0D0E9403
:100ED0003E06CF5FF1CF1F5F812F902FDF91CF9123
:100EE0001F910F91FF90EF90DF9008951F93CF9384
:100EF000DF93182FEC018C2F811B9991992351F0CE
:100F0000892F0E94F606BC018C2F811B653014F4DA
:100F100077FFF1CFDF91CF911F9108950F931F932A
:100F2000CF93DF93EC019B0110920C0140930D01D4
:100F3000109210010091080110910901011511058D
:100F400009F449C0F801818160910601709107019F
:100F500090E00E943A09BC0180910A0190910B0136
:100F60000E944B09CB016AE070E00E943A0990931D
:100F70000F0180930E01309305012093040140E29C
:100F800050E0BE0181E191E00E947309809100016F
:100F9000909101010197F9F4FE0101900020E9F719
:100FA000CF010197F8019181692F70E06F5F7F4F4A
:100FB0008C1B0E9431098150209102013091030164
:100FC0002130310511F095E001C097E0981718F431
:100FD0008EEF80931001DF91CF911F910F910895B3
:100FE00020910201309103012130310511F070E0B0
:100FF00001C076E04FEF60E00E948E07089590E018
:1010000090930701809306010895909301018093C6
:101010000001089590930301809302010895909335
:1010200009018093080108958091740390917503DC
:101030000196909375038093740320910E01309173
:101040000F018217930708F469C01092750310927C
:101050007403E0910C01F0E0E050FF4F81898111B1
:101060000AC080910D01823008F458C081508093ED
:101070000D0110920C0180910C0190E0FC01E050F8
:10108000FF4F2189222309F449C04091000150916A
:101090000101209110014115510521F04130510508
:1010A00099F024C0211122C06091040170910501C2
:1010B0008F5E9E4F0E94760790E0019790910C0101
:1010C000890F80930C0112C0609104017091050199
:1010D00040910201509103014130510511F4720F0A
:1010E00001C0621B8F5E9E4F0E94760780911001A7
:1010F0008F5F80931001082E000C990BE09108017E
:10110000F0910901218130E0281739073CF4109251
:10111000100180910C018F5F80930C010C94C60527
:10112000CF93DF93C0E0D1E09B878A870E94E205DE
:1011300084E190E09F838E83DF91CF910C94EF0642
:10114000182F092FF62E0E9415050E941F05C12F8A
:10115000D02F8E819F810E942405E881F9818A81A8
:101160009B8109958E819F812C813D81280F391F9C
:101170003F832E830E941F05E12FF02FAFEFBFEFBB
:1011800040E04F1531F326813781BC01621B730BA0
:101190009B012F3F7FE7370710F4EF01DACF31953E
:1011A000219531092A173B0710F4D901EF014F5F50
:1011B0003896E7CF811105C0662311F0429A089551
:1011C000429808953A9A429A08950F931F93CF93A5
:1011D000DF93CDB7DEB760970FB6F894DEBF0FBED2
:1011E000CDBF8E010F5F1F4F80E1F80111928A95EC
:1011F000E9F789E590E09A8389838DE790E09E8303
:101200008D838CE291E09A87898788E391E09E87BD
:101210008D870E9472020E9464038AEF90E00E9410
:10122000900881E391E00E940F088AE00E94FF0786
:1012300081E090E00E94050886E793E00E94130297
:1012400062E0C8010E94A00880E090E060960FB6BE
:10125000F894DEBF0FBECDBFDF91CF911F910F91EC
:101260000895002480FD060E660F11F08695D1F7D3
:10127000802D08950024552704C0080E591F880F9B
:10128000991F009729F076956795B8F37105B9F71E
:10129000802D952F0895AA1BBB1B51E107C0AA1FE3
:1012A000BB1FA617B70710F0A61BB70B881F991F07
:1012B0005A95A9F780959095BC01CD01089597FBAB
:1012C000072E16F4009407D077FD09D00E944B0931
:1012D00007FC05D03EF4909581959F4F0895709539
:1012E00061957F4F0895FB01DC014150504048F06B
:1012F00001900D920020C9F701C01D92415050404D
:08130000E0F70895F894FFCF17
:1013080000000000000014000000000000000000C1
:1013180000000000000000000000000000000000C5
:1013280000000000000000000000000000000000B5
:1013380000010507205F050000000000C618638053
:10134800014A290000004A7DF59502C417471F018C
:10135800632222320626155193058608000000886C
:101368000821080282208488008054570900809050
:101378004F0800000060880000800F000000000097
:101388008C0100222202002EE63AA303C4104288F0
:10139800032E4244C4072E4207A30388A9F411026E
:1013A8003F8407A3032E8617A3033F424408012E58
:1013B8004617A3032E460FA303C018600C00C018DD
:1013C8006088008888200802007CF001008220885C
:1013D80088002E424400012E425BAB0344C51F63C4
:1013E800042FC617E3032E8610A2032FC618E303A3
:1013F8003F8417C2073F841742002E861EA3073179
:10140800C61F63048E10428803104218A303319547
:10141800515204218410C20771D71A630471D61C73
:1014280063042EC618A3032FC61742002EC658936E
:10143800052FC61763042E0607A3039F1042080151
:1014480031C618A30331C618150131C65AAB02318B
:101458002AA26204312A4208011F2222C2072784D5
:1014680010C20120088220000E2184900344450008
:101478000000000000C00782200000000038E8A338
:101488000721B419E30300B810A20310DA1CA3075C
:1014980000B8F883034C8A238400C0C7E8A103215D
:1014A800B41963040418428803083084920121A403
:1014B800324A02861042880300AC5A630400B41909
:1014C800630400B818A30300BCF8420000D8EC215C
:1014D8000400B419420000B8E0E003421C212403D0
:1014E80000C418B30500C418150100C45AAB0200A3
:1014F8004445540400C4E8A103007C44C407881090
:101508004108028410420801821044880000888A39
:101518000000038003400320008003100340008084
:10152800031003800320004000200010000800047E
:1015380000020001444546454154203A28005649D6
:1015480043544F5259203A29004348524953544D65
:1015580041532054525543452C2031393134000031
:00000001FF
