:100000000C943A000C9457000C9457000C94570031
:100010000C9457000C9457000C9457000C94570004
:100020000C9457000C9457000C9457000C945700F4
:100030000C9457000C9457000C9457000C945700E4
:100040000C9457000C9457000C9457000C945700D4
:100050000C9457000C9457000C9457000C945700C4
:100060000C9457000C9457000C9457000C945700B4
:100070000C94570011241FBECFEFD4E0DEBFCDBFDC
:1000800013E0A0E0B1E0E0E0F3E102C005900D92E2
:10009000AC33B107D9F724E0ACE3B3E001C01D9263
:1000A000AB32B207E1F70E94EC080C947E090C9485
:1000B00000000C941B08CF93DF93EC0181E391E0E7
:1000C0000E9416088AE00E94060881E090E00E94E3
:1000D0000C0841E060E070E0CE010E949507DF91DE
:1000E000CF910895BF92CF92DF92EF92FF920F933C
:1000F0001F93CF93DF9300D000D01F92CDB7DEB710
:100100000E94F60680913C0381115EC061E08091FF
:100110005203909153030E94450661E08091E903E8
:100120009091EA030E94450602E513E095E0B92E9E
:100130000115110519F17801F6E0EF0EF11C6801C7
:100140008FE1C80ED11CF701DE0111968B2D0190B5
:100150000D928A95E1F7F7018081882329F061E00B
:100160008A819B810E944506F5E0EF0EF11CEC149C
:10017000FD0449F7F80102811381DACFE0913E03D3
:10018000EE23A1F1F0E0EE0FFF1FEE0FFF1FE3598A
:10019000FC4F309759F161E0808191810E944506C2
:1001A0000E941B0880EA90E00F900F900F900F9034
:1001B0000F90DF91CF911F910F91FF90EF90DF9003
:1001C000CF90BF900C94370584E393E00F900F908D
:1001D0000F900F900F90DF91CF911F910F91FF9093
:1001E000EF90DF90CF90BF900C945B000F900F903A
:1001F0000F900F900F90DF91CF911F910F91FF9073
:10020000EF90DF90CF90BF900895FC0182819381A1
:10021000892B29F081E080933C030C9472000895AF
:10022000089590913E039E3180F4E92FF0E0EE0FA7
:10023000FF1FEE0FFF1FEF58FC4F9F5F90933E0391
:10024000808361835383428302C0E0E0F0E0CF010A
:100250000895AF92BF92DF92EF92FF920F931F9398
:10026000CF93DF9300D000D000D0CDB7DEB7809120
:100270003C03811102C00E94FB0280E00E94C9027F
:10028000882379F061E082E593E00E944D048111BA
:1002900005C06AE082E593E00E9411040E947200AA
:1002A0009EC082E00E94C902882369F062E082E574
:1002B00093E00E944D048111F1CF6AE082E593E062
:1002C0000E942404EBCF83E00E94C902882361F0DE
:1002D00063E082E593E00E944D048111DFCF82E567
:1002E00093E00E943F04DACF81E00E94C902882394
:1002F00061F064E082E593E00E944D048111CECF6D
:1003000082E593E00E944604C9CF84E00E94C902BE
:10031000882309F464C040915403509155036091BF
:1003200053034115510511F0615005C0409156032A
:10033000509157036F5F809152030E9411018C010D
:10034000FC01E280F380DD24D3940115110509F44A
:1003500046C02091540330915503F80181818150AA
:10036000232B09F4F8018183F801618180810E94C7
:10037000B70329833A834B835C836D83AC80BD8054
:100380002E830E9472002E81222319F0AE14BF0426
:1003900019F1F8012081F7019081F8018181291379
:1003A00011C0F701918189130DC060913D036D2546
:1003B00060933D0380E00E94E10882E593E00E94A3
:1003C00005010AC0873008F260913D036D256093F6
:1003D0003D0380E00E94E10800E010E0B6CF82E536
:1003E00093E00E940105882399F082E593E0269628
:1003F0000FB6F894DEBF0FBECDBFDF91CF911F9136
:100400000F91FF90EF90DF90BF90AF900C9405019B
:1004100026960FB6F894DEBF0FBECDBFDF91CF9109
:100420001F910F91FF90EF90DF90BF90AF900895D4
:10043000CF93DF9300D000D01F92CDB7DEB70F90DF
:100440000F900F900F900F90DF91CF910895BF9272
:10045000CF92DF92EF92FF920F931F93CF93DF9390
:10046000FC0189EE93E0909355038093540382E559
:1004700093E09093EE038093ED0382E08083A2816A
:10048000B381109711F48AE001C086E0818314964D
:10049000CD90DC901597E6012896E12CF12C05E033
:1004A00010E082E0B82EFE01319710830883319767
:1004B000B082DA82C982C70165E070E00E94360925
:1004C0008C0D9D1DFC013696DC0116964C915181D8
:1004D0006281738184810E949103B4E0EB16F10480
:1004E00051F01F5F153010F0015010E08FEFE81A47
:1004F000F80A2596D8CFDF91CF911F910F91FF90E9
:10050000EF90DF90CF90BF900C947200E1E6F0E0A6
:1005100080E880831082A89584B7877F84BFE0E657
:10052000F0E08081886180831082089562307105D7
:1005300011F168F46130710551F5FC01FF2724A128
:10054000892F8095922F982394A395A112C0633090
:10055000710541F064307105D1F4FC01FF2784A1DD
:10056000892B0FC0FC01FF2784A1892B84A385A1BF
:100570009095892309C0FC01FF2724A1892F80952C
:10058000822384A385A1892B85A381E0089580E03F
:100590000895E82FF0E0EE0FFF1FE15CFC4F808133
:1005A000882321F0918181E0892702C080E090E0DA
:1005B00081700895E82FF0E0EE0FFF1FE15CFC4F23
:1005C0008081811102C0818102C080E090E0817051
:1005D0000895E82FF0E0EE0FFF1FE15CFC4F8081F3
:1005E0000895E82FF0E0EE0FFF1FE15CFC4F9081D3
:1005F00081E0892708956F927F928F929F92AF92A8
:10060000BF92CF92DF92EF92FF920F931F93CF93FF
:10061000DF9300D0CDB7DEB72FE3622E23E0722E3A
:1006200032E1C32E33E0D32E812C46E0942EF30129
:1006300080818183F601019111916F015801BB24E2
:10064000F50184A1E12EFF2425A130E02E213F21D8
:1006500041E0232B09F440E090E08E219F21892B7B
:1006600029F0411108C023E030E00AC0411106C062
:1006700021E030E005C024E030E002C022E030E0BC
:1006800064E070E0C80129833A830E94960262E028
:1006900070E0C8010E949602892D8A95F1F7F50154
:1006A00083A190E0E822F92281E029813A81EF28B4
:1006B00009F080E0F3018083B901C8010E9496022D
:1006C0008394F2E06F0E711C85E08812B0CF0F901A
:1006D0000F90DF91CF911F910F91FF90EF90DF90DE
:1006E000CF90BF90AF909F908F907F906F90089524
:1006F0000895262F90E063E070E00E943609622F93
:1007000070E0660F771F660F771F860F971F33E025
:10071000880F991F3A95E1F767E070E00E945B0946
:100720000895CF93DF9300D000D01F92CDB7DEB7EE
:1007300049835A836B837C838D83852F0E94790341
:1007400090E065E070E00E943609DC01A85FBB4FD5
:1007500095E0FE01319601900D929A95E1F70F9088
:100760000F900F900F900F90DF91CF9108950F93FE
:100770001F93CF93DF93CDB7DEB72A970FB6F894C8
:10078000DEBF0FBECDBF082F162F0E94790390E069
:1007900065E070E00E943609885F9B4F25E0FC0110
:1007A000DE01169601900D922A95E1F7FC01408139
:1007B00031812281632F032E000C770B802F90E074
:1007C00068177907C1F4612F70E0822F022E000CA8
:1007D000990B8617970779F4442369F04E833F837A
:1007E000288785E0FE013696DE01119601900D9274
:1007F0008A95E1F703C019821A821B8229813A8106
:100800004B815C816D8170E080E090E02A960FB6AC
:10081000F894DEBF0FBECDBFDF91CF911F910F9136
:100820000895FC0191816A3050F4292F092E000CA3
:10083000330B261B310937FD06C0961B03C0191662
:1008400014F4915091830895FC0191816A3058F419
:10085000262F30E0290F311D97FD3A9527303105BD
:100860006CF4960F0AC022813381232B19F0963045
:100870002CF402C0953014F49F5F91830895FC011D
:100880009081191614F4915090830895FC01908181
:10089000943014F49F5F90830895CF92DF92EF928B
:1008A000FF920F931F93CF93DF9300D000D000D01F
:1008B000CDB7DEB78C01E62EFC018081F180F1E03E
:1008C0006F1302C0FA940EC092E0691302C0F39451
:1008D00009C0E3E06E1302C0815004C0F4E06F135E
:1008E00001C08F5F6F2D0E94B70329833A834B832A
:1008F0005C836D83CC80DD80222309F471C0C01637
:10090000D10609F06BC081E0E81217C06FEF640FE9
:10091000832F0E94B7035C836D838C819D8122238A
:1009200031F08017910719F463E0C80102C062E05A
:10093000C6010E94110441E054C092E0E9120BC0CC
:10094000F8018181833011F463E001C062E0C801E5
:100950000E942404F0CFF3E0EF121EC0232F330FC8
:10096000330B21503109C90165E070E00E9436095E
:10097000800F911FFC014681411132C08085082EF5
:10098000000C990B6F2D70E08617970751F5C80181
:100990004E830E943F0420C0F4E0EF1221C0232FB9
:1009A000330F330B2F5F3F4FC90165E070E00E94AA
:1009B0003609800F911FFC014681411111C08085CD
:1009C000082E000C990B6F2D70E08617970749F4DD
:1009D000C8014E830E9446044E8103C042E001C01C
:1009E00040E0842F26960FB6F894DEBF0FBECDBF31
:1009F000DF91CF911F910F91FF90EF90DF90CF90FB
:100A00000895FC01208141810280F381E02D30971F
:100A100089F030E08081082E000C990B28173907E7
:100A200049F450E02181022E000C330B81E0421783
:100A3000530709F080E008951092800084E08093CD
:100A400081001092850010928400089580918400A6
:100A5000909185000895AC0180918400909185006B
:100A60009C01241B350B283E3340B0F7089520919C
:100A7000840030918500820F931F0C942B059C01FC
:100A8000FC01FF2784A1832B84A395A1892F832BAD
:100A900085A381E00895CF93DF93C6E2D3E08991E7
:100AA00099910E943F0583E0C433D807C1F783E0E2
:100AB00090E40E943F0580E090E80E943F0583E0BB
:100AC00090E10E943F0583E090E80E943F0583E0AB
:100AD00090E2DF91CF910C943F05E0914903F0E063
:100AE000EE0FFF1FE45EFC4F20813181F901FF27EB
:100AF00095A1932B95A3E6E2F3E097E02081318165
:100B0000D901BB2795962C91959780FF03C030950E
:100B1000232301C0232B95962C93869591503296D2
:100B20009111ECCFE62FF0E0EE0FFF1FE45EFC4FDB
:100B300080819181FC01FF2785A19095892385A360
:100B4000609349030895853098F4673088F421E074
:100B500030E001C0220F6A95EAF7E82FF0E0E55B8C
:100B6000FC4F922F9095808189234111822B8083A5
:100B70000895853080F4673070F4E82FF0E0E55B8D
:100B8000FC4F81E090E001C0880F6A95EAF7908100
:100B9000982381E009F480E0089560914A03E62FEC
:100BA000F0E0E55BFC4F80810E946D0580914A0377
:100BB0008F5F853018F480934A03089510924A039A
:100BC0000895EBE4F3E01082118212821382148202
:100BD00008950E944B050C94E105009789F0FC01F3
:100BE0002381621B67FD09C0062E000C770B248150
:100BF00030E081E0621773070CF080E081700895A7
:100C000080E00895CF93DF93FC01A62F822F3097C9
:100C100071F16181461758F59281291740F593814A
:100C2000A91BA7FD24C00A2E000CBB0BC481D0E079
:100C3000AC17BD07E4F40E942D09480F658170E0F0
:100C4000CD010E9436090696242F269526952695D5
:100C5000E80FF91FE20FF11D9081892F90E0477096
:100C600002C0959587954A95E2F7817001C080E0B2
:100C7000DF91CF91089541E0611101C040E0692FFB
:100C80000C94A305692F0C94B90541E0611101C0D2
:100C900040E0692F0C94A3054F925F926F927F9270
:100CA0008F929F92AF92BF92CF92DF92EF92FF927C
:100CB0000F931F93CF93DF931F92CDB7DEB7862E8E
:100CC000942E5C01E62EF72E262F660F330B281B81
:100CD000310987FD3395072F072E000C110B091BD7
:100CE000110997FD139537FF03C077247A9402C04A
:100CF0007724739417FF03C066246A9402C06624A5
:100D00006394290137FF03C051944194510817FFA0
:100D100003C011950195110940165106A4F0620116
:100D2000D594C794F92EA81421F1692D8A2D9F2DF1
:100D30000E944506C01AD10AD7FE03C0C40CD51CB8
:100D4000F60CA70CF0CF6801D594C794E82EB7161F
:100D500081F0692D8E2D9B2D79830E944506C41844
:100D6000D5087981D7FE03C0C00ED11EE70CB60CA2
:100D7000EECF692DC7010F90DF91CF911F910F9199
:100D8000FF90EF90DF90CF90BF90AF909F908F90AB
:100D90007F906F905F904F900C944506FF920F9359
:100DA0001F93CF93DF93D82FF92E162FC72F042F21
:100DB000792F0E944C06402F6D2F7C2F8D2F9F2D59
:100DC0000E944C06402F612F7C2F812F9F2D0E9467
:100DD0004C06402F612F7C2F8D2F9C2F0E944C069C
:100DE000DF91CF911F910F91FF9008950E94E1052F
:100DF000E0E0F1E0118A14860895DF92EF92FF920D
:100E00000F931F93CF93DF93D82E7B01162F0F2DB7
:100E10008091020190910301C0E00197A1F50F2D8F
:100E20000C1BE0910801F09109018181C817C0F401
:100E3000D0E08091080190910901FC012281D21734
:100E400068F42D2F4C2F6D2D0E940206682F8D2FD8
:100E50008E0D902F0E944506DF5FEBCFCF5FDFCF77
:100E6000C0E0E0910801F09109018281C81740F4C7
:100E700060E08C2F8E0D902F0E944506CF5FF1CF42
:100E8000015031C0CF5F1C2F1E0DE0910801F09181
:100E900009018181C817B0F4D0E0809108019091D8
:100EA0000901FC012281D21768F72D2F4C2F6D2DDF
:100EB0000E940206682F812F9D2F9F0D0E944506DC
:100EC000DF5FEBCFC0E0E0910801F0910901828182
:100ED000C81740F460E0812F9C2F9F0D0E944506AB
:100EE000CF5FF1CF1F5F812F902FDF91CF911F91A7
:100EF0000F91FF90EF90DF9008951F93CF93DF93B2
:100F0000182FEC018C2F811B9991992351F0892F77
:100F10000E94FD06BC018C2F811B653014F477FF05
:100F2000F1CFDF91CF911F9108950F931F93CF932E
:100F3000DF93EC019B0110920C0140930D01109284
:100F4000100100910801109109010115110509F422
:100F500049C0F8018181609106017091070190E01C
:100F60000E943609BC0180910A0190910B010E94F8
:100F70004709CB016AE070E00E94360990930F01A7
:100F800080930E01309305012093040140E250E06C
:100F9000BE0181E191E00E946F0980910001909172
:100FA00001010197F9F4FE0101900020E9F7CF015A
:100FB0000197F8019181692F70E06F5F7F4F8C1B63
:100FC0000E942D09815020910201309103012130AE
:100FD000310511F095E001C097E0981718F48EEFF5
:100FE00080931001DF91CF911F910F91089520916F
:100FF0000201309103012130310511F070E001C090
:1010000076E04FEF60E00E949507089590E090939E
:1010100007018093060108959093010180930001D8
:10102000089590930301809302010895909309011C
:101030008093080108958091500390915103019687
:10104000909351038093500320910E0130910F0132
:101050008217930708F469C010925103109250034D
:10106000E0910C01F0E0E050FF4F818981110AC04E
:1010700080910D01823008F458C0815080930D0199
:1010800010920C0180910C0190E0FC01E050FF4FA8
:101090002189222309F449C04091000150910101A6
:1010A000209110014115510521F04130510599F071
:1010B00024C0211122C060910401709105018F5E4E
:1010C0009E4F0E947D0790E0019790910C01890F3F
:1010D00080930C0112C06091040170910501409150
:1010E0000201509103014130510511F4720F01C00A
:1010F000621B8F5E9E4F0E947D07809110018F5F63
:1011000080931001082E000C990BE0910801F091DA
:101110000901218130E0281739073CF410921001B1
:1011200080910C018F5F80930C010C94CD05CF93BF
:10113000DF93C0E0D1E09B878A870E94E90584E1C4
:1011400090E09F838E83DF91CF910C94F606182F49
:10115000092FF62E0E941C050E942605C12FD02FB4
:101160008E819F810E942B05E881F9818A819B8174
:1011700009958E819F812C813D81280F391F3F83E6
:101180002E830E942605E12FF02FAFEFBFEF40E046
:101190004F1531F326813781BC01621B730B9B0114
:1011A0002F3F7FE7370710F4EF01DACF3195219514
:1011B00031092A173B0710F4D901EF014F5F389628
:1011C000E7CF811105C0662311F0429A0895429835
:1011D00008953A9A429A08950F931F93CF93DF93FD
:1011E000CDB7DEB760970FB6F894DEBF0FBECDBFA8
:1011F0008E010F5F1F4F80E1F80111928A95E9F788
:1012000089E590E09A8389838DE790E09E838D83C2
:1012100089E291E09A87898788E391E09E878D87AC
:101220000E9486020E9478038AEF90E00E9497084D
:1012300082E593E00E94270262E0C8010E94A708AD
:1012400080E090E060960FB6F894DEBF0FBECDBF91
:10125000DF91CF911F910F910895002480FD060E1C
:10126000660F11F08695D1F7802D0895002455273B
:1012700004C0080E591F880F991F009729F0769512
:101280006795B8F37105B9F7802D952F0895AA1BBE
:10129000BB1B51E107C0AA1FBB1FA617B70710F061
:1012A000A61BB70B881F991F5A95A9F78095909593
:1012B000BC01CD01089597FB072E16F4009407D0CA
:1012C00077FD09D00E94470907FC05D03EF49095B0
:1012D00081959F4F0895709561957F4F0895FB010B
:1012E000DC014150504048F001900D920020C9F7B8
:1012F00001C01D9241505040E0F70895F894FFCF8F
:1013000000000000000014000000000000000000C9
:1013100000000000000000000000000000000000CD
:1013200000000000000000000000000000000000BD
:1013300000010507205F050000000000C61863805B
:10134000014A290000004A7DF59502C417471F0194
:101350006322223206261551930586080000008874
:101360000821080282208488008054570900809058
:101370004F0800000060880000800F00000000009F
:101380008C0100222202002EE63AA303C4104288F8
:10139000032E4244C4072E4207A30388A9F4110276
:1013A0003F8407A3032E8617A3033F424408012E60
:1013B0004617A3032E460FA303C018600C00C018E5
:1013C0006088008888200802007CF0010082208864
:1013D00088002E424400012E425BAB0344C51F63CC
:1013E000042FC617E3032E8610A2032FC618E303AB
:1013F0003F8417C2073F841742002E861EA3073181
:10140000C61F63048E10428803104218A30331954F
:10141000515204218410C20771D71A630471D61C7B
:1014200063042EC618A3032FC61742002EC6589376
:10143000052FC61763042E0607A3039F1042080159
:1014400031C618A30331C618150131C65AAB023193
:101450002AA26204312A4208011F2222C2072784DD
:1014600010C20120088220000E2184900344450010
:101470000000000000C00782200000000038E8A340
:101480000721B419E30300B810A20310DA1CA30764
:1014900000B8F883034C8A238400C0C7E8A1032165
:1014A000B41963040418428803083084920121A40B
:1014B000324A02861042880300AC5A630400B41911
:1014C000630400B818A30300BCF8420000D8EC2164
:1014D0000400B419420000B8E0E003421C212403D8
:1014E00000C418B30500C418150100C45AAB0200AB
:1014F0004445540400C4E8A103007C44C407881098
:101500004108028410420801821044880000888A41
:10151000000003800340032000800310034000808C
:101520000310038003200040002000100008000486
:0C15300000020001566963746F727900BC
:00000001FF
