:100000000C943A000C9457000C9457000C94570031
:100010000C9457000C9457000C9457000C94570004
:100020000C9457000C9457000C9457000C945700F4
:100030000C9457000C9457000C9457000C945700E4
:100040000C9457000C9457000C9457000C945700D4
:100050000C9457000C9457000C9457000C945700C4
:100060000C9457000C9457000C9457000C945700B4
:100070000C94570011241FBECFEFD4E0DEBFCDBFDC
:1000800013E0A0E0B1E0E0ECF3E102C005900D92D6
:10009000A437B107D9F724E0A4E7B3E001C01D926B
:1000A000A336B207E1F70E943C090C94DE090C94D8
:1000B00000000C946B08CF93DF9300D0CDB7DEB770
:1000C00089839A830E9446072091000189819A8141
:1000D000211104C020917503222319F00E944708C2
:1000E00005C041E060E070E00E94E5070F900F90CE
:1000F000DF91CF910C946B08BF92CF92DF92EF9279
:10010000FF920F931F93CF93DF9300D000D01F92E5
:10011000CDB7DEB78C010E9446078091750381112F
:1001200064C080910001811160C061E0D8018D91AF
:100130009C910E949506D8011296ED91FC9113971F
:1001400061E0808191810E94950695E0B92E0115AC
:10015000110529F17801B6E0EB0EF11C6801EFE121
:10016000CE0ED11CF701DE0111968B2D01900D9260
:100170008A95E1F7F7018081882329F061E08A817F
:100180009B810E949506F5E0EF0EF11CEC14FD0436
:1001900049F7D80112960D911C911397D8CFE09191
:1001A0007403EE2311F1F0E0EE0FFF1FEE0FFF1FBF
:1001B000EB55FC4F3097C9F061E0808191810E943E
:1001C00095060E946B0884E690E00F900F900F90C8
:1001D0000F900F90DF91CF911F910F91FF90EF90B3
:1001E000DF90CF90BF900C9487050F900F900F90E9
:1001F0000F900F90DF91CF911F910F91FF90EF9093
:10020000DF90CF90BF900895FC0182819381892B6C
:1002100041F081E08093750365E373E08FE393E041
:1002200004C06FE373E085E393E00C945B0081E02E
:10023000809375036AE473E0CB010C945B009091AA
:1002400074039E3180F4E92FF0E0EE0FFF1FEE0FF4
:10025000FF1FE755FC4F9F5F90937403808361837A
:100260005383428302C0E0E0F0E0CF010895BF92E3
:10027000CF92DF92EF92FF920F931F93CF93DF9372
:10028000FC0181E294E090938D0380938C038AE8D3
:1002900093E0909326048093250482E08083A281DA
:1002A000B381109711F48AE001C086E0818314962F
:1002B000CD90DC901597E6012896E12CF12C05E015
:1002C00010E082E0B82EFE01319710830883319749
:1002D000B082DA82C982C70165E070E00E949609A7
:1002E0008C0D9D1DFC013696DC0116964C915181BA
:1002F0006281738184810E94D403B4E0EB16F1041F
:1003000051F01F5F153010F0015010E08FEFE81A28
:10031000F80A2596D8CF8AE893E0DF91CF911F9114
:100320000F91FF90EF90DF90CF90BF900C947C00E6
:10033000DF92EF92FF920F931F93CF93DF9300D042
:1003400000D000D0CDB7DEB70E943E0380910001FF
:100350008823D1F084E00E940C038823A9F0109236
:100360000001109275038AE893E026960FB6F89480
:10037000DEBF0FBECDBFDF91CF911F910F91FF90D8
:10038000EF90DF900C947C0080917503882301F13D
:1003900084E00E940C038823D9F08AE893E00E944D
:1003A00037011092750381E08093000160E673E0ED
:1003B000CB0126960FB6F894DEBF0FBECDBFDF91FE
:1003C000CF911F910F91FF90EF90DF900C945B0005
:1003D000809175038111CFC0809100018111CBC044
:1003E0000E940C03882389F061E08AE893E00E9470
:1003F0009004811105C06AE08AE893E00E945404E9
:100400008AE893E00E947C00A1C082E00E940C0375
:10041000882369F062E08AE893E00E9490048111E9
:10042000EFCF6AE08AE893E00E946704E9CF83E0B7
:100430000E940C03882361F063E08AE893E00E9445
:1004400090048111DDCF8AE893E00E948204D8CF26
:1004500081E00E940C03882361F064E08AE893E065
:100460000E9490048111CCCF8AE893E00E94890415
:10047000C7CF84E00E940C03882309F467C0409131
:100480008C0350918D0360918B034115510511F040
:10049000615005C040918E0350918F036F5F809132
:1004A0008A030E941F018C01FC01E280F380DD249D
:1004B000D3940115110509F449C020918C033091A2
:1004C0008D03F80181818150232B09F4F801818388
:1004D000F801618180810E94FA0329833A834B836A
:1004E0005C836D838AE893E02E830E947C002E81DA
:1004F000222329F08C819D818E159F0521F1F80121
:100500002081F7019081F8018181291311C0F70141
:10051000918189130DC0609176036D2560937603F8
:1005200080E00E9431098AE893E00E9404010BC038
:10053000873008F4BECF609176036D256093760313
:1005400080E00E94310900E010E0B3CF8AE893E038
:100550000E944405882379F026960FB6F894DEBFF2
:100560000FBECDBFDF91CF911F910F91FF90EF9004
:10057000DF900C94170126960FB6F894DEBF0FBEDD
:10058000CDBFDF91CF911F910F91FF90EF90DF9042
:100590000895E1E6F0E080E880831082A89584B7B2
:1005A000877F84BFE0E6F0E08081886180831082ED
:1005B00008956230710511F168F46130710551F5EB
:1005C000FC01FF2724A1892F8095922F982394A3C3
:1005D00095A112C06330710541F064307105D1F40A
:1005E000FC01FF2784A1892B0FC0FC01FF2784A1F8
:1005F000892B84A385A19095892309C0FC01FF273D
:1006000024A1892F8095822384A385A1892B85A38A
:1006100081E0089580E00895E82FF0E0EE0FFF1FDD
:10062000E958FC4F8081882321F0918181E089275E
:1006300002C080E090E081700895E82FF0E0EE0FB6
:10064000FF1FE958FC4F8081811102C0818102C0E7
:1006500080E090E081700895E82FF0E0EE0FFF1F3A
:10066000E958FC4F80810895E82FF0E0EE0FFF1F5E
:10067000E958FC4F908181E0892708956F927F921D
:100680008F929F92AF92BF92CF92DF92EF92FF92A2
:100690000F931F93CF93DF9300D0CDB7DEB727E73B
:1006A000622E23E0722E33E1C32E33E0D32E812C51
:1006B00046E0942EF30180818183F601019111912E
:1006C0006F015801BB24F50184A1E12EFF2425A16F
:1006D00030E02E213F2141E0232B09F440E090E05F
:1006E0008E219F21892B29F0411108C023E030E0A1
:1006F0000AC0411106C021E030E005C024E030E02E
:1007000002C022E030E064E070E0C80129833A834F
:100710000E94D90262E070E0C8010E94D902892DCE
:100720008A95F1F7F50183A190E0E822F92281E0B2
:1007300029813A81EF2809F080E0F3018083B90133
:10074000C8010E94D9028394F2E06F0E711C85E00B
:100750008812B0CF0F900F90DF91CF911F910F9122
:10076000FF90EF90DF90CF90BF90AF909F908F90D1
:100770007F906F9008950895262F90E063E070E0D9
:100780000E949609622F70E0660F771F660F771F31
:10079000860F971F33E0880F991F3A95E1F767E0BE
:1007A00070E00E94BB090895CF93DF9300D000D082
:1007B0001F92CDB7DEB749835A836B837C838D83C9
:1007C000852F0E94BC0390E065E070E00E949609CE
:1007D000DC01A05CBB4F95E0FE01319601900D92CB
:1007E0009A95E1F70F900F900F900F900F90DF9177
:1007F000CF9108950F931F93CF93DF93CDB7DEB7BB
:100800002A970FB6F894DEBF0FBECDBF082F162F64
:100810000E94BC0390E065E070E00E949609805C55
:100820009B4F25E0FC01DE01169601900D922A9562
:10083000E1F7FC01408131812281632F032E000CFE
:10084000770B802F90E068177907C1F4612F70E073
:10085000822F022E000C990B8617970779F44423F8
:1008600069F04E833F83288785E0FE013696DE01DE
:10087000119601900D928A95E1F703C019821A82B0
:100880001B8229813A814B815C816D8170E080E01F
:1008900090E02A960FB6F894DEBF0FBECDBFDF9171
:1008A000CF911F910F910895FC0191816A3050F40E
:1008B000292F092E000C330B261B310937FD06C0EA
:1008C000961B03C0191614F4915091830895FC01EE
:1008D00091816A3058F4262F30E0290F311D97FDA1
:1008E0003A95273031056CF4960F0AC02281338186
:1008F000232B19F096302CF402C0953014F49F5F2E
:1009000091830895FC019081191614F491509083FD
:100910000895FC019081943014F49F5F90830895B2
:10092000CF92DF92EF92FF920F931F93CF93DF93BB
:1009300000D000D000D0CDB7DEB78C01E62EFC0190
:100940008081F180F1E06F1302C0FA940EC092E052
:10095000691302C0F39409C0E3E06E1302C0815032
:1009600004C0F4E06F1301C08F5F6F2D0E94FA0383
:1009700029833A834B835C836D83CC80DD80222383
:1009800009F471C0C016D10609F06BC081E0E8120D
:1009900017C06FEF640F832F0E94FA035C836D838F
:1009A0008C819D81222331F08017910719F463E037
:1009B000C80102C062E0C6010E94540441E054C074
:1009C00092E0E9120BC0F8018181833011F463E0F9
:1009D00001C062E0C8010E946704F0CFF3E0EF12AB
:1009E0001EC0232F330F330B21503109C90165E09D
:1009F00070E00E949609800F911FFC014681411111
:100A000032C08085082E000C990B6F2D70E0861780
:100A1000970751F5C8014E830E94820420C0F4E07C
:100A2000EF1221C0232F330F330B2F5F3F4FC9012C
:100A300065E070E00E949609800F911FFC014681DD
:100A4000411111C08085082E000C990B6F2D70E0AC
:100A50008617970749F4C8014E830E9489044E8186
:100A600003C042E001C040E0842F26960FB6F89400
:100A7000DEBF0FBECDBFDF91CF911F910F91FF90D1
:100A8000EF90DF90CF900895FC0140812181A281F9
:100A9000B38150E0109759F08C91082E000C990BFF
:100AA00048175907B9F430E011964C910CC00480F6
:100AB000F581E02D8081082E000C990B481759070D
:100AC00049F430E04181042E000C550B81E02417DD
:100AD000350709F080E008951092800084E080934B
:100AE0008100109285001092840008958091840006
:100AF000909185000895AC018091840090918500CB
:100B00009C01241B350B283E3340B0F708952091FB
:100B1000840030918500820F931F0C947B059C010B
:100B2000FC01FF2784A1832B84A395A1892F832B0C
:100B300085A381E00895CF93DF93C7E2D3E0899145
:100B400099910E948F0583E0C533D807C1F783E0F0
:100B500090E40E948F0580E090E80E948F0583E07A
:100B600090E10E948F0583E090E80E948F0583E06A
:100B700090E2DF91CF910C948F05E0918103F0E03A
:100B8000EE0FFF1FE35EFC4F20813181F901FF274B
:100B900095A1932B95A3E7E2F3E097E020813181C3
:100BA000D901BB2795962C91959780FF03C030956E
:100BB000232301C0232B95962C9386959150329632
:100BC0009111ECCFE62FF0E0EE0FFF1FE35EFC4F3C
:100BD00080819181FC01FF2785A19095892385A3C0
:100BE000609381030895853098F4673088F421E09C
:100BF00030E001C0220F6A95EAF7E82FF0E0ED57E8
:100C0000FC4F922F9095808189234111822B808304
:100C10000895853080F4673070F4E82FF0E0ED57E8
:100C2000FC4F81E090E001C0880F6A95EAF790815F
:100C3000982381E009F480E0089560918203E62F13
:100C4000F0E0ED57FC4F80810E94BD05809182034A
:100C50008F5F853018F48093820308951092820389
:100C60000895E3E8F3E01082118212821382148265
:100C700008950E949B050C943106009789F0FC01B1
:100C80002381621B67FD09C0062E000C770B2481AF
:100C900030E081E0621773070CF080E08170089506
:100CA00080E00895CF93DF93FC01A62F822F309729
:100CB00071F16181461758F59281291740F59381AA
:100CC000A91BA7FD24C00A2E000CBB0BC481D0E0D9
:100CD000AC17BD07E4F40E948D09480F658170E0F0
:100CE000CD010E9496090696242F269526952695D5
:100CF000E80FF91FE20FF11D9081892F90E04770F6
:100D000002C0959587954A95E2F7817001C080E011
:100D1000DF91CF91089541E0611101C040E0692F5A
:100D20000C94F305692F0C94090641E0611101C090
:100D300040E0692F0C94F3054F925F926F927F927F
:100D40008F929F92AF92BF92CF92DF92EF92FF92DB
:100D50000F931F93CF93DF931F92CDB7DEB7862EED
:100D6000942E5C01E62EF72E262F660F330B281BE0
:100D7000310987FD3395072F072E000C110B091B36
:100D8000110997FD139537FF03C077247A9402C0A9
:100D90007724739417FF03C066246A9402C0662404
:100DA0006394290137FF03C051944194510817FF00
:100DB00003C011950195110940165106A4F0620176
:100DC000D594C794F92EA81421F1692D8A2D9F2D51
:100DD0000E949506C01AD10AD7FE03C0C40CD51CC8
:100DE000F60CA70CF0CF6801D594C794E82EB7167F
:100DF00081F0692D8E2D9B2D79830E949506C41854
:100E0000D5087981D7FE03C0C00ED11EE70CB60C01
:100E1000EECF692DC7010F90DF91CF911F910F91F8
:100E2000FF90EF90DF90CF90BF90AF909F908F900A
:100E30007F906F905F904F900C949506FF920F9368
:100E40001F93CF93DF93D82FF92E162FC72F042F80
:100E5000792F0E949C06402F6D2F7C2F8D2F9F2D68
:100E60000E949C06402F612F7C2F812F9F2D0E9476
:100E70009C06402F612F7C2F8D2F9C2F0E949C065B
:100E8000DF91CF911F910F91FF9008950E9431063D
:100E9000E1E0F1E0118A14860895DF92EF92FF926B
:100EA0000F931F93CF93DF93D82E7B01162F0F2D17
:100EB0008091030190910401C0E00197A1F50F2DED
:100EC0000C1BE0910901F0910A018181C817C0F45F
:100ED000D0E08091090190910A01FC012281D21792
:100EE00068F42D2F4C2F6D2D0E945206682F8D2FE8
:100EF0008E0D902F0E949506DF5FEBCFCF5FDFCF87
:100F0000C0E0E0910901F0910A018281C81740F424
:100F100060E08C2F8E0D902F0E949506CF5FF1CF51
:100F2000015031C0CF5F1C2F1E0DE0910901F091DF
:100F30000A018181C817B0F4D0E080910901909135
:100F40000A01FC012281D21768F72D2F4C2F6D2D3D
:100F50000E945206682F812F9D2F9F0D0E9495069B
:100F6000DF5FEBCFC0E0E0910901F0910A018281DF
:100F7000C81740F460E0812F9C2F9F0D0E949506BA
:100F8000CF5FF1CF1F5F812F902FDF91CF911F9106
:100F90000F91FF90EF90DF9008951F93CF93DF9311
:100FA000182FEC018C2F811B9991992351F0892FD7
:100FB0000E944D07BC018C2F811B653014F477FF14
:100FC000F1CFDF91CF911F9108950F931F93CF938E
:100FD000DF93EC019B0110920D0140930E011092E2
:100FE00011010091090110910A010115110509F47F
:100FF00049C0F8018181609107017091080190E07A
:101000000E949609BC0180910B0190910C010E94F5
:10101000A709CB016AE070E00E9496099093100145
:1010200080930F01309306012093050140E250E0C8
:10103000BE0182E191E00E94CF098091010190916F
:1010400002010197F9F4FE0101900020E9F7CF01B8
:101050000197F8019181692F70E06F5F7F4F8C1BC2
:101060000E948D09815020910301309104012130AB
:10107000310511F095E001C097E0981718F48EEF54
:1010800080931101DF91CF911F910F9108952091CD
:101090000301309104012130310511F070E001C0ED
:1010A00076E04FEF60E00E94E507089590E09093AE
:1010B0000801809307010895909302018093010134
:1010C00008959093040180930301089590930A0179
:1010D0008093090108958091880390918903019676
:1010E000909389038093880320910F013091100120
:1010F0008217930708F469C010928903109288033D
:10110000E0910D01F0E0EF5FFE4F818981110AC08F
:1011100080910E01823008F458C0815080930E01F6
:1011200010920D0180910D0190E0FC01EF5FFE4FE8
:101130002189222309F449C0409101015091020103
:10114000209111014115510521F04130510599F0CF
:1011500024C0211122C060910501709106018E5EAC
:101160009E4F0E94CD0790E0019790910D01890F4D
:1011700080930D0112C060910501709106014091AC
:101180000301509104014130510511F4720F01C067
:10119000621B8E5E9E4F0E94CD07809111018F5F72
:1011A00080931101082E000C990BE0910901F09138
:1011B0000A01218130E0281739073CF4109211010F
:1011C00080910D018F5F80930D010C941D06CF93CC
:1011D000DF93C1E0D1E09B878A870E94390684E1D2
:1011E00090E09F838E83DF91CF910C944607182F58
:1011F000092FF62E0E946C050E947605C12FD02F74
:101200008E819F810E947B05E881F9818A819B8183
:1012100009958E819F812C813D81280F391F3F8345
:101220002E830E947605E12FF02FAFEFBFEF40E055
:101230004F1531F326813781BC01621B730B9B0173
:101240002F3F7FE7370710F4EF01DACF3195219573
:1012500031092A173B0710F4D901EF014F5F389687
:10126000E7CF811105C0662311F0429A0895429894
:1012700008953A9A429A08950F931F93CF93DF935C
:10128000CDB7DEB760970FB6F894DEBF0FBECDBF07
:101290008E010F5F1F4F80E1F80111928A95E9F7E7
:1012A00089E590E09A8389838DE790E09E838D8322
:1012B00088E991E09A87898788E391E09E878D8706
:1012C0000E94C9020E94BB038AEF90E00E94E708D7
:1012D00082E391E00E9466088AE00E94560881E05D
:1012E00090E00E945C088AE893E00E94370160E683
:1012F00073E0CB010E945B0062E0C8010E94F70826
:1013000080E090E060960FB6F894DEBF0FBECDBFD0
:10131000DF91CF911F910F910895002480FD060E5B
:10132000660F11F08695D1F7802D0895002455277A
:1013300004C0080E591F880F991F009729F0769551
:101340006795B8F37105B9F7802D952F0895AA1BFD
:10135000BB1B51E107C0AA1FBB1FA617B70710F0A0
:10136000A61BB70B881F991F5A95A9F780959095D2
:10137000BC01CD01089597FB072E16F4009407D009
:1013800077FD09D00E94A70907FC05D03EF490958F
:1013900081959F4F0895709561957F4F0895FB014A
:1013A000DC014150504048F001900D920020C9F7F7
:1013B00001C01D9241505040E0F70895F894FFCFCE
:1013C0000100000000000014000000000000000008
:1013D000000000000000000000000000000000000D
:1013E00000000000000000000000000000000000FD
:1013F0000000010507205F050000000000C618631B
:1014000080014A290000004A7DF59502C417471F54
:10141000016322223206261551930586080000003A
:10142000880821080282208488008054570900809F
:10143000904F0800000060880000800F000000004E
:10144000008C0100222202002EE63AA303C41042BF
:1014500088032E4244C4072E4207A30388A9F4112F
:10146000023F8407A3032E8617A3033F42440801CB
:101470002E4617A3032E460FA303C018600C00C00E
:10148000186088008888200802007CF00100822013
:101490008888002E424400012E425BAB0344C51FE6
:1014A00063042FC617E3032E8610A2032FC618E38A
:1014B000033F8417C2073F841742002E861EA307EE
:1014C00031C61F63048E10428803104218A30331F3
:1014D00095515204218410C20771D71A630471D642
:1014E0001C63042EC618A3032FC61742002EC6582D
:1014F00093052FC61763042E0607A3039F10420807
:101500000131C618A30331C618150131C65AAB0202
:10151000312AA26204312A4208011F2222C207276F
:101520008410C20120088220000E218490034445CB
:10153000000000000000C00782200000000038E822
:10154000A30721B419E30300B810A20310DA1CA307
:101550000700B8F883034C8A238400C0C7E8A103BE
:1015600021B41963040418428803083084920121CD
:10157000A4324A02861042880300AC5A630400B4C5
:1015800019630400B818A30300BCF8420000D8ECAB
:10159000210400B419420000B8E0E003421C2124F9
:1015A0000300C418B30500C418150100C45AAB02E7
:1015B000004445540400C4E8A103007C44C40788E7
:1015C00010410802841042080182104488000088FB
:1015D0008A000003800340032000800310034000C2
:1015E000800310038003200040002000100008004A
:1015F0000400020001444546454154203A28005663
:101600004943544F5259203A2900434852495354B0
:101610004D41532054525543452C2031393134002B
:10162000424154544C45204F46204C4544203139CA
:041630003134000051
:00000001FF
