:100000000C943A000C9457000C9457000C94570031
:100010000C9457000C9457000C9457000C94570004
:100020000C9457000C9457000C9457000C945700F4
:100030000C9457000C9457000C9457000C945700E4
:100040000C9457000C9457000C9457000C945700D4
:100050000C9457000C9457000C9457000C945700C4
:100060000C9457000C9457000C9457000C945700B4
:100070000C94570011241FBECFEFD4E0DEBFCDBFDC
:1000800011E0A0E0B1E0E0E3FFE002C005900D92D6
:10009000AA38B107D9F721E0AAE8B1E001C01D9262
:1000A000AF3BB207E1F70E94ED060C9496070C9463
:1000B00000008091A8019091A9010C949C020E94DB
:1000C000CE0184E00E949C01882341F06DE371E041
:1000D0008091A8019091A9010C94720208958091D9
:1000E000AA019091AB010E94E203882319F05C9A67
:1000F0005E9808955C985E9A0895E1E6F0E080E8E5
:1001000080831082A89584B7877F84BFE0E6F0E003
:10011000808188618083108208951092800084E03D
:100120008093810010928500109284000895809140
:100130008400909185000895AC0180918400909195
:1001400085009C01241B350B283E3340B0F70895F1
:100150002091840030918500820F931F0C949C00A5
:10016000853098F4673088F421E030E001C0220F38
:100170006A95EAF7E82FF0E0E355FE4F922F90954D
:10018000808189234111822B80830895853080F4FA
:10019000673070F4E82FF0E0E355FE4F81E090E027
:1001A00001C0880F6A95EAF79081982381E009F4ED
:1001B00080E008956091AC01E62FF0E0E355FE4F3A
:1001C00080810E9433018091AC018F5F853018F4EB
:1001D0008093AC0108951092AC010895EDEAF1E02E
:1001E0001082118212821382148208950E941101DA
:1001F0000C94EE00811105C0662311F0429A089517
:10020000429808953A9A429A08959C01FC01FF276A
:1002100084A1832B84A395A1892F832B85A381E0BF
:100220000895CF93DF93CAE6D1E0899199910E9416
:10023000050181E0C837D807C1F783E090E40E9448
:10024000050180E090E80E94050183E090E10E94B2
:10025000050183E090E80E94050183E090E2DF91D0
:10026000CF910C940501E091B201F0E0EE0FFF1F79
:10027000E05AFE4F20813181F901FF2795A1932B90
:1002800095A3EAE6F1E097E020813181D901BB270F
:1002900095962C91959780FF03C03095232301C03C
:1002A000232B95962C938695915032969111ECCFF5
:1002B000E62FF0E0EE0FFF1FE05AFE4F80819181A4
:1002C000FC01FF2785A19095892385A36093B20146
:1002D00008956230710511F168F46130710551F5CE
:1002E000FC01FF2724A1892F8095922F982394A3A6
:1002F00095A112C06330710541F064307105D1F4ED
:10030000FC01FF2784A1892B0FC0FC01FF2784A1DA
:10031000892B84A385A19095892309C0FC01FF271F
:1003200024A1892F8095822384A385A1892B85A36D
:1003300081E0089580E00895E82FF0E0EE0FFF1FC0
:10034000ED54FE4F8081882321F0918181E089273F
:1003500002C080E090E081700895E82FF0E0EE0F99
:10036000FF1FED54FE4F8081811102C0818102C0C8
:1003700080E090E081700895E82FF0E0EE0FFF1F1D
:10038000ED54FE4F80810895E82FF0E0EE0FFF1F3F
:10039000ED54FE4F908181E0892708956F927F92FE
:1003A0008F929F92AF92BF92CF92DF92EF92FF9285
:1003B0000F931F93CF93DF9300D0CDB7DEB723EB1E
:1003C000622E21E0722E38E7C32E31E0D32E812C2D
:1003D00046E0942EF30180818183F6010191119111
:1003E0006F015801BB24F50184A1E12EFF2425A152
:1003F00030E02E213F2141E0232B09F440E090E042
:100400008E219F21892B29F0411108C023E030E083
:100410000AC0411106C021E030E005C024E030E010
:1004200002C022E030E064E070E0C80129833A8332
:100430000E94690162E070E0C8010E946901892D93
:100440008A95F1F7F50183A190E0E822F92281E095
:1004500029813A81EF2809F080E0F3018083B90116
:10046000C8010E9469018394F2E06F0E711C85E05F
:100470008812B0CF0F900F90DF91CF911F910F9105
:10048000FF90EF90DF90CF90BF90AF909F908F90B4
:100490007F906F9008950895FC018589968960EF9B
:1004A00070E00E9456079C018685648570E090E0AC
:1004B0000E945607BC01660F771F660F771FC901A0
:1004C0000E94730763830895CF93DF93EC01E9895A
:1004D000FA8940E06D858B899C8909951D86DF919D
:1004E000CF910895CF93DF93EC0178876F837E835C
:1004F0006D831A8619861B8684E0888B8C87CE01D3
:100500000E944C02CE010E9464021982188281E08E
:100510008A83DF91CF910895FC0166870C944C0289
:10052000FC016787089521E0FC0185819681892B74
:1005300009F420E0822F0895EF92FF920F931F930A
:10054000CF93DF93EC010D811E810115110509F494
:10055000EBC088819981009779F00197998388830E
:10056000892B09F0E1C0CE01DF91CF911F910F914E
:10057000FF90EF900C9464028A81882309F4D4C020
:1005800081508A838111D0C0D801EC91E11104C05F
:10059000CE010E946402C6C071E0D80111968C9110
:1005A0001197833219F070E0119602C0D8011296AB
:1005B0004C914B3211F04D3211F4119601C040E0D4
:1005C0009D0150E080E089012F5F3F4FD8019C9151
:1005D00060ED690F6A3038F46AE00E944D0780537D
:1005E000890F51E0F0CFEE33F1F094F4EA3209F4E0
:1005F00047C02CF4E03209F095C0F12C66C0EA3314
:1006000031F1EC3309F08EC01A8709871B86BCCF05
:10061000E83434F4E1340CF040C0E034B1F182C08D
:10062000EB35C1F07FC02B852F5F2B87811101C077
:1006300082E0022E000C330B90E0281739070CF0F3
:10064000A3CF09851A850115110509F09DCF0F81EA
:1006500018859ACF2B85022E000C330B90E0019762
:100660002817390709F490CFF8018F018191882369
:1006700009F48ACF8B3509F487CF8E33B1F784CF55
:10068000882309F481CF8C8704C0882309F47CCFA8
:100690008E87CE010E944C0277CF0E2E000CFF0BEE
:1006A000EF5BFE4F908171119F5F5111888B4B3230
:1006B00011F4945F03C04D3209F49C5088898F5F18
:1006C0006CE00E944D07F92EF80EC80131E0301B96
:1006D0008C01632F680FFC01208101962F32C1F33A
:1006E000E62EEE0CEE0C2E3229F42E2D2695E20E7F
:1006F0008C0104C02C3211F48C01E694E989FA894A
:100700004F856F2D8B899C890995FD862C812A83C5
:100710008B816E2D70E090E00E945607821B91093C
:10072000998388831E830D83DF91CF911F910F9151
:10073000FF90EF900895FC01CB01768B658B528B77
:10074000418B348B238B24E62787158611821082F8
:10075000128262E370E00E94560768EE73E00E9426
:100760007307648384E0848788EC8687CF010895CB
:10077000FC01618342830895FC01662311F041115D
:1007800003C01182128208956832D8F028ED260F36
:10079000822F6CE00E946707382F64EF0E944D079C
:1007A000820FA581B681A80FB11D8C91315010F038
:1007B0008695FCCF8183642F70E090E00E945607FD
:1007C00092830895FC0180818F5F808391818917D6
:1007D00008F0108281E020819281291708F080E0E2
:1007E0000895FC01748363835683458311821282CA
:1007F0000895009789F0FC012381621B67FD09C001
:10080000062E000C770B248130E081E0621773071D
:100810000CF080E08170089580E00895CF93DF931D
:10082000FC01A62F822F309771F16181461758F590
:100830009281291740F59381A91BA7FD24C00A2E98
:10084000000CBB0BC481D0E0AC17BD07E4F40E94E0
:100850004D07480F658170E0CD010E94560706964E
:10086000242F269526952695E80FF91FE20FF11DF6
:100870009081892F90E0477002C0959587954A95A1
:10088000E2F7817001C080E0DF91CF910895182FC9
:10089000092FF62E0E948D000E949700C12FD02FA5
:1008A0008E819F810E949C00E881F9818A819B81D1
:1008B00009958E819F812C813D81280F391F3F83AF
:1008C0002E830E949700E12FF02FAFEFBFEF40E0A3
:1008D0004F1531F326813781BC01621B730B9B01DD
:1008E0002F3F7FE7370710F4EF01DACF31952195DD
:1008F00031092A173B0710F4D901EF014F5F3896F1
:10090000E7CF41E0611101C040E0692F0C94B000D5
:10091000692F0C94C60041E0611101C040E0692FCD
:100920000C94B0004F925F926F927F928F929F9241
:10093000AF92BF92CF92DF92EF92FF920F931F93ED
:10094000CF93DF931F92CDB7DEB7862E942E5C0136
:10095000E62EF72E262F660F330B281B310987FD55
:100960003395072F072E000C110B091B110997FD5A
:10097000139537FF03C077247A9402C077247394C9
:1009800017FF03C066246A9402C066246394290199
:1009900037FF03C051944194510817FF03C01195CC
:1009A0000195110940165106A4F06201D594C7942F
:1009B000F92EA81421F1692D8A2D9F2D0E948B04F8
:1009C000C01AD10AD7FE03C0C40CD51CF60CA70C64
:1009D000F0CF6801D594C794E82EB71681F0692D41
:1009E0008E2D9B2D79830E948B04C418D5087981A4
:1009F000D7FE03C0C00ED11EE70CB60CEECF692D9A
:100A0000C7010F90DF91CF911F910F91FF90EF9051
:100A1000DF90CF90BF90AF909F908F907F906F901E
:100A20005F904F900C948B04FF920F931F93CF9382
:100A3000DF93D82FF92E162FC72F042F792F0E945E
:100A40009204402F6D2F7C2F8D2F9F2D0E9492049A
:100A5000402F612F7C2F812F9F2D0E949204402FC9
:100A6000612F7C2F8D2F9C2F0E949204DF91CF91BC
:100A70001F910F91FF9008950E94EE00ECE0F1E0CD
:100A8000118A14860895DF92EF92FF920F931F93BD
:100A9000CF93DF93D82E7B01162F0F2D80910E015F
:100AA00090910F01C0E00197A1F50F2D0C1BE09173
:100AB0001401F09115018181C817C0F4D0E0809134
:100AC000140190911501FC012281D21768F42D2F99
:100AD0004C2F6D2D0E940E04682F8D2F8E0D902FA0
:100AE0000E948B04DF5FEBCFCF5FDFCFC0E0E091F0
:100AF0001401F09115018281C81740F460E08C2F39
:100B00008E0D902F0E948B04CF5FF1CF015031C02A
:100B1000CF5F1C2F1E0DE0911401F0911501818112
:100B2000C817B0F4D0E08091140190911501FC0138
:100B30002281D21768F72D2F4C2F6D2D0E940E04A5
:100B4000682F812F9D2F9F0D0E948B04DF5FEBCFBD
:100B5000C0E0E0911401F09115018281C81740F4C2
:100B600060E0812F9C2F9F0D0E948B04CF5FF1CFFF
:100B70001F5F812F902FDF91CF911F910F91FF90D9
:100B8000EF90DF9008951F93CF93DF93182FEC0120
:100B90008C2F811B9991992351F0892F0E94430535
:100BA000BC018C2F811B653014F477FFF1CFDF91EE
:100BB000CF911F9108950F931F93CF93DF93EC0173
:100BC0009B01109218014093190110921C01009191
:100BD0001401109115010115110509F449C0F8011E
:100BE0008181609112017091130190E00E9456077B
:100BF000BC0180911601909117010E947307CB01EF
:100C00006AE070E00E94560790931B0180931A01DE
:100C1000309311012093100140E250E0BE018DE1BC
:100C200091E00E94870780910C0190910D0101973E
:100C3000F9F4FE0101900020E9F7CF010197F801D6
:100C40009181692F70E06F5F7F4F8C1B0E944D0771
:100C5000815020910E0130910F012130310511F0AA
:100C600095E001C097E0981718F48EEF80931C016F
:100C7000DF91CF911F910F91089520910E01309136
:100C80000F012130310511F070E001C076E04FEF27
:100C900060E00E94DB05089590E09093130180933B
:100CA0001201089590930D0180930C010895909383
:100CB0000F0180930E010895909315018093140104
:100CC00008958091BD019091BE0101969093BE015F
:100CD0008093BD0120911A0130911B018217930767
:100CE00008F469C01092BE011092BD01E091180194
:100CF000F0E0E45FFE4F818981110AC08091190103
:100D0000823008F458C08150809319011092180164
:100D10008091180190E0FC01E45FFE4F21892223BD
:100D200009F449C040910C0150910D0120911C0122
:100D30004115510521F04130510599F024C0211190
:100D400022C06091100170911101835E9E4F0E943C
:100D5000C30590E0019790911801890F80931801C5
:100D600012C0609110017091110140910E015091DB
:100D70000F014130510511F4720F01C0621B835EF7
:100D80009E4F0E94C30580911C018F5F80931C01C0
:100D9000082E000C990BE0911401F09115012181AE
:100DA00030E0281739073CF410921C01809118019B
:100DB0008F5F809318010C94DA00CF93DF93CCE01F
:100DC000D1E09B878A870E94F60084E190E09F83B0
:100DD0008E83DF91CF910C943C050F931F93CF939B
:100DE000DF93CDB7DEB768970FB6F894DEBF0FBEBE
:100DF000CDBF8E010F5F1F4F88E1F80111928A95D8
:100E0000E9F78FE690E09A83898386E090E09E83FD
:100E10008D8389E590E09A87898788E391E09E87B2
:100E20008D872FE530E03A8B298B9E8B8D8B0E942E
:100E30007D0040E051E068E873E18AE891E00E94BB
:100E4000F1039093AB018093AA01549A5C98569A4F
:100E50005E982091AA013091AB014CEB53E064E61F
:100E600070E081E991E00E949B039093A901809337
:100E7000A80168EC0E948C0263E0C8010E9447044C
:100E800080E090E068960FB6F894DEBF0FBECDBF4D
:100E9000DF91CF911F910F910895002480FD060EE0
:100EA000660F11F08695D1F7802D089500245527FF
:100EB00004C0080E591F880F991F009729F07695D6
:100EC0006795B8F37105B9F7802D952F0895991B93
:100ED00079E004C0991F961708F0961B881F7A9531
:100EE000C9F780950895AA1BBB1B51E107C0AA1F33
:100EF000BB1FA617B70710F0A61BB70B881F991FBB
:100F00005A95A9F780959095BC01CD010895FB01F4
:100F1000DC014150504048F001900D920020C9F78B
:100F200001C01D9241505040E0F70895F894FFCF62
:100F30003D393633302D2B28262422200000000096
:100F4000000014000000000000000000000000008D
:100F50000000000000000000000000000000000091
:100F600000000000000000000000000000434646B2
:100F7000474645444420444747414746454320436C
:100F80004141422D414746442043434447454600A2
:100F90000340008003100380032000400020001065
:100FA00000080004000200010380034003200080C9
:0A0FB0000310090B000204050700FE
:00000001FF
